:020000021000EC
:10FC000001C025C1112484B7882369F0982F9A7008
:10FC1000923049F081FF02C097EF94BF282E80E018
:10FC200001D10C94000085E08093810082E08093F4
:10FC3000C00088E18093C10086E08093C20080E12B
:10FC40008093C4008EE0EED0209A86E020E33CEF63
:10FC500091E0309385002093840096BBB09BFECF4B
:10FC6000189AA8954091C00047FD02C0815089F7BD
:10FC700043E0D42ECC24C39451E1752EC7D08134F7
:10FC800071F4C4D0C82FD4D081E0C23821F088E00C
:10FC9000C13809F083E0B3D080E1B1D0EFCF823436
:10FCA00019F484E1CDD0F8CF853411F485E0FACF92
:10FCB000853581F4ABD0082FA9D0182F87FF07C056
:10FCC0008BB781608BBF000F111FB2D0E5CF8BB710
:10FCD0008E7FF8CF863581F499D08D3459F496D043
:10FCE000CBB794D0C170880F8C2B8BBF81E0A8D08C
:10FCF00080E0D1CF83E0FBCF843609F04EC086D0C0
:10FD0000C82FD0E0DC2FCC2781D0C82B7FD0682E25
:10FD10005E01B394E12CFF24F3944701EFEFEE1A58
:10FD2000FE0A74D0F4018083EA14FB04B1F780D09A
:10FD3000F5E46F1211C0F12CE12C08C06081C701FD
:10FD4000800F911F9CD08FEFE81AF80AF701F39506
:10FD5000CE15DF0599F7A0CFF801D7BEE89507B615
:10FD600000FCFDCF90E080E0FC01E00FF11FDC0122
:10FD7000B3952D913C910901C7BEE89511240296D7
:10FD8000C817D90789F785E0F80187BFE89507B656
:10FD900000FCFDCF77BEE8957FCF843709F536D0DC
:10FDA000C82FD0E0DC2FCC2731D0C82B2FD0B82ED5
:10FDB0003FD07801F5E4BF120CC0C00FD11FC701BE
:10FDC00056D01DD08FEFE81AF80AEC16FD06B9F7E9
:10FDD00063CFF70187917F0112D02197D1F75CCFD4
:10FDE000853739F425D08EE10AD087E908D085E03F
:10FDF00052CF813509F069CF88E014D066CF909159
:10FE0000C00095FFFCCF8093C60008958091C0008C
:10FE100087FFFCCF8091C00084FD01C0A895809130
:10FE2000C6000895E0E6F0E098E1908380830895AD
:10FE3000EDDF803219F088E0F5DFFFCF84E1DFCF1E
:10FE4000CF93C82FE3DFC150E9F7CF91F1CFFC0189
:10FE50000A0167BFE895112407B600FCFDCF667064
:10FE600029F0452B19F481E187BFE8950895F999A8
:10FE7000FECF92BD81BDF89A992780B50895262FAF
:10FE8000F999FECF1FBA92BD81BD20BD0FB6F8947F
:10FE9000FA9AF99A0FBE0196089556657273696FC2
:10FEA0006E3D382E31004F505449424F4F545F43FE
:10FEB0005553544F4D5645523D3000446576696365
:10FEC000653D61746D656761313238347000465F3D
:10FED0004350553D31363030303030304C0042499F
:10FEE00047424F4F543D31004275696C743A41703E
:10FEF0007220203520323032313A31353A33353ABA
:10FF0000333700554152543D3000424155445F5211
:10FF10004154453D313135323030004C45443D424D
:10FF200030004C45445F53544152545F464C41535A
:06FF30004845533D33007B
:02FFFE000108F8
:040000031000FC00ED
:00000001FF
