:10780000112484B714BE81FFBAD185E08093810032
:1078100082E08093C00088E18093C10096E090935D
:10782000C20090E19093C400809360008EE080934A
:107830006000259A86E020E33CEF91E030938500DC
:107840002093840096BBB09BFECF1D9AA8958150D3
:10785000A9F7C0E0D0E008E138E0F32EEE24E3948D
:1078600045E0B42E51E1A52E13E064D1813491F4AA
:1078700061D1D82E6BD182E8D81203C084E053D1F5
:1078800092C0E1E8DE1203C084E04DD18CC083E0F9
:107890004AD189C0823419F484E164D184C085342A
:1078A00019F485E05FD17FC0853549F443D1C82FF5
:1078B00041D1D0E0D82BCC0FDD1F48D174C0863524
:1078C00029F484E04FD180E02ED16DC0843609F0D8
:1078D0003FC030D12FD1982E2DD1C115F0E7DF0751
:1078E00038F4FE0117BFE895C12CDD24D39403C002
:1078F000C12CDD24D3941ED1F60181936F019E1219
:10790000FACFC115F0E7DF0718F0FE0117BFE895C1
:107910001DD107B600FCFDCFFE01A0E0B1E08C91C7
:1079200011962C91119790E0922B0C01E7BEE895EF
:10793000112432961296A03881E0B80781F7FE0133
:10794000B7BEE89507B600FCFDCFA7BEE8952BC0F3
:107950008437B1F4EFD0EED0982EECD0F7D0892C4C
:10796000FE016F018FEFC81AD80A8491DCD08A9487
:10797000F6018110F6CF21969A94C90DD11D13C03E
:10798000853741F4E3D08EE1CED085E9CCD08FE0CD
:10799000CAD009C0813531F400936000F0926000D4
:1079A000D5D001C0D3D080E1BED05FCF259A089555
:1079B0001D9A089521E031E0FC013183208380E0AD
:1079C00008952F923F924F925F926F927F928F9283
:1079D0009F92AF92BF92CF92DF92EF92FF920F935E
:1079E0001F93CF93DF93CDB7DEB728970FB6F894E8
:1079F000DEBF0FBECDBF4115510509F47BC040FD70
:107A000079C0F999FECF56954795DB01A07C1B0103
:107A10000FE3200E311C240E351E9101207C3A8389
:107A200029836F737727A980BA80AA15BB0508F050
:107A30005DC02D01612C712C93018201000F111F7B
:107A4000221F331F0D831E832F83388700E010E031
:107A5000980168017901C40CD51CE61CF71CCC0CFC
:107A6000DD1CEE1CFF1C6017710791F4FC01808087
:107A7000918022242394F601040120925700E89576
:107A800011244150510979F06F5F7F4F02960BC06E
:107A9000F6012590349099249394F6010101909277
:107AA0005700E89511240F5F1F4F2F4F3F4F0034B1
:107AB00011052105310509F0CCCF33E0232EED81EE
:107AC000FE8120925700E89507B600FCFDCF25E027
:107AD000222EED81FE8120925700E89507B600FC2A
:107AE000FDCFA05CBF4F60E070E09DCF81E180934F
:107AF0005700E89528960FB6F894DEBF0FBECDBFAD
:107B0000DF91CF911F910F91FF90EF90DF90CF9079
:107B1000BF90AF909F908F907F906F905F904F90AD
:107B20003F902F9008959091C00095FFFCCF8093D7
:107B3000C60008958091C00087FFFCCF8091C000EF
:107B400084FD01C0A8958091C6000895F3DF8032BE
:107B500039F088E18093600088E080936000FFCF77
:107B600084E1E1CFCF93C82FE5DFC150E9F7CF9192
:107B7000EDCFE0E6F0E098E1908380830895E0E6C1
:107B8000F0E088E180831082EE27FF2709949FEBC5
:107B9000980F963010F4875308959FE9980F963008
:107BA00010F48755089580538A3008F08FEF0895B8
:107BB0008091C00087FFFCCF8091C600089590910E
:107BC000C00095FFFCCF8093C60008950F931F93CC
:107BD000CF93DF93D82F84E2F2DFC0E008E011E01A
:107BE000DD2349F0F8018081EADFF80181918F01FE
:107BF000C80FD150F5CF83E2E2DF8C2F82958F70D2
:107C00008A3010F0895A01C0805DD9DFCF70CA3048
:107C100010F087E501C080E38C0FDF91CF911F91B9
:107C20000F91CDCFFC012E2F281B349131963111AD
:107C3000FACF2D3908F02CE92093480240914802F0
:107C4000242F30E0A8E0B1E0FC012150310920F000
:107C500084918D933196F9CF842FB8CF88E089DF56
:107C6000FFCFA6DF843271F020F4833009F4BAC06C
:107C7000BAC08B32B1F38D3209F0B5C080914802A1
:107C8000A5DFEFCF1092480293DFD0E0E0914802E9
:107C9000833259F091E09E0F90934802F0E0E85F44
:107CA000FE4F8083D80F84DFF1CFF0E0E85FFE4F16
:107CB00010827EDF6CDFC82FC295C07F79DF67DF5F
:107CC0008C2BD81719F08DE27ADFCBCF8BE277DFE0
:107CD00080910801883579F038F4873409F47CC044
:107CE000803509F479C07BC0833609F475C08337C9
:107CF00009F472C074C0C12CD12C7601C0E0EC2F05
:107D0000F0E08F01075F1E4FF801808140DF8F3F59
:107D100069F044E0CC0CDD1CEE1CFF1C4A95D1F749
:107D2000C80ED11CE11CF11CCF5FE9CF812C912C36
:107D30005401712CC72DD0E0F801EC0FFD1F81819B
:107D400026DF8F3F69F034E0880C991CAA1CBB1C0D
:107D50003A95D1F7880E911CA11CB11C7394EACFFF
:107D6000D701C60188279927BB27892B8A2B8B2B04
:107D700081F5FE013296E00FF11FA8EAB1E0AD01F6
:107D8000485A514048155905ACF480818D3771F43B
:107D900081818A3041F028F49DEF980F923030F4C1
:107DA00002C08D3519F480628183319680818D9374
:107DB0003196E5CFD701C601AA27BC01CD01969522
:107DC00087957795679588EA91E0FBDD85E091E0FE
:107DD0000CC081E091E009C085E091E002C080E044
:0E7DE00091E020DF3BDF80E091E01CDF3ACF36
:087DEE0000453035004F4B0049
:0E7FE80041426A02DA3CD63CD83CE13C313ED4
:027FFE00040479
:040000030000780081
:00000001FF
