:020000023000CC
:10FC000001C02EC11F92CDB7DEB7112484B788235F
:10FC100069F0982F9A70923049F081FF02C097EFF7
:10FC200094BF282E80E007D10C94000085E08093DB
:10FC3000810082E08093C00088E18093C10086E06B
:10FC40008093C20080E18093C4008EE0F4D0279AB4
:10FC500086E020E33CEF91E0309385002093840020
:10FC600096BBB09BFECF1F9AA8954091C00047FD60
:10FC700002C0815089F7FF24F39455E0E52E61E13D
:10FC8000D62ECDD0813471F4CAD08983DAD089815F
:10FC9000823809F4B3C0813811F488E001C083E0F0
:10FCA000B7D0B3C0823411F484E103C0853419F4B1
:10FCB00085E0CFD0AAC0853579F4B1D0082FAFD078
:10FCC000182F87FF03C08BB7816002C08BB78E7F70
:10FCD0008BBF000F111F98C0863589F4A0D08D34DA
:10FCE00051F49DD0CBB69BD0880F9C2D9170892B61
:10FCF0008BBF81E001C083E0ACD080E0D1CF8436FF
:10FD000009F04EC08CD0A82EB12CBA2CAA2487D0D2
:10FD10003501682A84D0C82E5301812C32E0932EFD
:10FD20007ED0F40181934F01F1E0AF1AB108C1F721
:10FD300088D085E4C81214C04301EEEF9E1A580122
:10FD4000612C92E0792E6814790409F45EC0F30105
:10FD500061913F01C5019CD0FFEFAF1ABF0AF3CFFD
:10FD600083E0F80187BFE89507B600FCFDCFF801F6
:10FD7000A0E0B2E08D919D910C01F7BEE8951124B1
:10FD800082E0681A710832966114710499F7F801DB
:10FD9000E7BEE89507B600FCFDCFD7BEE89535C0B5
:10FDA000843729F53CD0A82EB12CBA2CAA2437D000
:10FDB0004501882A34D0898344D05801898185340B
:10FDC00069F4C5015DD024D0F1E08F1A91088FEF5E
:10FDD000A81AB80A81149104A1F717C0F5018791F8
:10FDE0005F0116D0F1E08F1A9108C1F70EC0853778
:10FDF00039F427D08EE10CD088E90AD081E050CFC9
:10FE0000813511F488E017D01CD080E101D039CFC2
:10FE10009091C00095FFFCCF8093C600089580911B
:10FE2000C00087FFFCCF8091C00084FD01C0A89571
:10FE30008091C6000895E0E6F0E098E19083808329
:10FE40000895EDDF803219F088E0F5DFFFCF84E11F
:10FE5000DFCFCF93C82FE3DFC150E9F7CF91F1CFC8
:10FE6000FC010A0167BFE895112407B600FCFDCF2D
:10FE7000667029F0452B19F481E187BFE895089554
:10FE8000F999FECF92BD81BDF89A992780B5089562
:10FE9000262FF999FECF1FBA92BD81BD20BD0FB6A6
:10FEA000F894FA9AF99A0FBE0196089556657273FE
:10FEB000696F6E3D382E31004F505449424F4F54B8
:10FEC0005F435553544F4D5645523D30004465767F
:10FED0006963653D61746D65676132353630004632
:10FEE0005F4350553D31363030303030304C004279
:10FEF0004947424F4F543D31004275696C743A4A4C
:10FF0000756E20323720323032303A31323A343066
:10FF10003A323800554152543D3000424155445F19
:10FF2000524154453D313135323030004C45443D2D
:10FF30004237004C45445F53544152545F464C4154
:07FF4000534845533D330017
:02FFFE000108F8
:040000033000FC00CD
:00000001FF
