:107C0000112484B714BE81FF08D185E080938100E0
:107C100082E08093C00088E18093C10096E0909359
:107C2000C20090E19093C400809360008EE0809346
:107C30006000259A88E020E33CEF91E030938500D6
:107C40002093840096BBB09BFECF1D9AA8958150CF
:107C5000A9F7612C712C08E138E0F32EEE24E394AF
:107C600045E0D42E51E1C52E13E0B8D0813489F41B
:107C7000B5D08983BFD08981823819F484E0A7D038
:107C800098C0813819F484E0A2D093C083E09FD0DB
:107C900090C0823419F484E1B9D08BC0853419F4D2
:107CA00085E0B4D086C0853551F498D0B82E96D0F2
:107CB0006B2C712C782A660C771C9CD07AC0863588
:107CC00029F484E0A3D080E082D073C0843609F028
:107CD00043C084D083D0982E81D0611480E7780689
:107CE00038F4F30117BFE895A12CBB24B39403C06B
:107CF000A12CBB24B39472D0F50181935F019E1235
:107D0000FACF6114F0E77F0618F0F30117BFE8958A
:107D100071D007B600FCFDCFA301A0E0B1E08C91CB
:107D200012969D0121503109F901208190E0922B9A
:107D3000FA010C01E7BEE89511244E5F5F4FA038B1
:107D4000F1E0BF0761F7F301D7BEE89507B600FC85
:107D5000FDCFC7BEE8952DC08437C1F43FD03ED0DB
:107D6000982E3CD047D0F301862C890C5F018FEF11
:107D7000A81AB80A84912BD0F5018A10F7CFEFEF3B
:107D80006E1A7E0A9A94690C711C13C0853741F4EF
:107D900031D08EE11CD085E91AD08FE018D009C00F
:107DA000813531F400936000F092600023D001C06F
:107DB00021D080E10CD059CF259A08951D9A0895BD
:107DC00021E031E0FC013183208380E0089590912F
:107DD000C00095FFFCCF8093C60008958091C0003D
:107DE00087FFFCCF8091C00084FD01C0A8958091E1
:107DF000C6000895F3DF803239F088E18093600097
:107E000088E080936000FFCF84E1E1CFCF93C82F5B
:107E1000E5DFC150E9F7CF91EDCFE0E6F0E088E192
:0A7E200080831082EE27FF270994EB
:0A7FF00041426A01E03EDC3EDE3E45
:0400000300007C007D
:00000001FF
