:1078000000453035004F4B00112484B714BE81FF72
:10781000C0D185E08093810082E08093C00088E140
:107820008093C10096E09093C20090E19093C400D1
:10783000809360008EE080936000259A8CE020E3C6
:107840003CEF91E0309385002093840096BBB09B81
:10785000FECF1D9AA8958150A9F7612C712C08E1E3
:1078600038E0F32EEE24E39445E0D42E51E1C52E0A
:1078700013E06AD1813489F467D1898371D1898118
:10788000823819F484E059D198C0813819F484E021
:1078900054D193C083E051D190C0823419F484E173
:1078A0006BD18BC0853419F485E066D186C08535EF
:1078B00051F44AD1B82E48D16B2C712C782A660C21
:1078C000771C4ED17AC0863529F484E055D180E00A
:1078D00034D173C0843609F043C036D135D1982EE7
:1078E00033D1611480E7780638F4F30117BFE895C7
:1078F000A12CBB24B39403C0A12CBB24B39424D1EA
:10790000F50181935F019E12FACF6114F0E77F06C3
:1079100018F0F30117BFE89523D107B600FCFDCF9F
:10792000A301A0E0B1E08C9112969D012150310994
:10793000F901208190E0922BFA010C01E7BEE89555
:1079400011244E5F5F4FA038F1E0BF0761F7F301EC
:10795000D7BEE89507B600FCFDCFC7BEE8952DC0A1
:107960008437C1F4F1D0F0D0982EEED0F9D0F301E5
:10797000862C890C5F018FEFA81AB80A8491DDD09C
:10798000F5018A10F7CFEFEF6E1A7E0A9A94690C10
:10799000711C13C0853741F4E3D08EE1CED085E968
:1079A000CCD08FE0CAD009C0813531F4009360009B
:1079B000F0926000D5D001C0D3D080E1BED059CFC5
:1079C000259A08951D9A089521E031E0FC01318344
:1079D000208380E008952F923F924F925F926F92A2
:1079E0007F928F929F92AF92BF92CF92DF92EF924F
:1079F000FF920F931F93CF93DF93CDB7DEB72897F6
:107A00000FB6F894DEBF0FBECDBF4115510509F486
:107A10007BC040FD79C0F999FECF56954795DB01B3
:107A2000A07C1B010FE3200E311C240E351E91019A
:107A3000207C3A8329836F737727A980BA80AA159F
:107A4000BB0508F05DC02D01612C712C93018201F2
:107A5000000F111F221F331F0D831E832F833887B2
:107A600000E010E0980168017901C40CD51CE61C07
:107A7000F71CCC0CDD1CEE1CFF1C6017710791F489
:107A8000FC018080918022242394F601040120923D
:107A90005700E89511244150510979F06F5F7F4FED
:107AA00002960BC0F6012590349099249394F60128
:107AB000010190925700E89511240F5F1F4F2F4F3F
:107AC0003F4F003411052105310509F0CCCF33E0DB
:107AD000232EED81FE8120925700E89507B600FC29
:107AE000FDCF25E0222EED81FE8120925700E89502
:107AF00007B600FCFDCFA05CBF4F60E070E09DCFFB
:107B000081E180935700E89528960FB6F894DEBF80
:107B10000FBECDBFDF91CF911F910F91FF90EF90DE
:107B2000DF90CF90BF90AF909F908F907F906F909D
:107B30005F904F903F902F9008959091C00095FFD7
:107B4000FCCF8093C60008958091C00087FFFCCFD2
:107B50008091C00084FD01C0A8958091C600089561
:107B6000F3DF803239F088E18093600088E0809311
:107B70006000FFCF84E1E1CFCF93C82FE5DFC15094
:107B8000E9F7CF91EDCFE0E6F0E098E190838083D4
:107B90000895E0E6F0E088E180831082EE27FF2779
:107BA00009949FEB980F963010F4875308959FE93E
:107BB000980F963010F48755089580538A3008F056
:107BC0008FEF08958091C00087FFFCCF8091C600A1
:107BD00008959091C00095FFFCCF8093C600089552
:107BE0000F931F93CF93DF93D82F84E2F2DFC0E08F
:107BF00000E011E0D00FD01741F0F8018081E9DFFB
:107C0000F80181918F01C80FF6CF83E2E2DF8C2F5C
:107C100082958F708A3010F0895A01C0805DD9DF5B
:107C2000CF70CA3010F087E501C080E38C0FDF9180
:107C3000CF911F910F91CDCFFC012E2F281B349196
:107C400031963111FACF2F3708F02EE72093040236
:107C500040910402642F70E0A0E0B1E020E030E049
:107C60002617370741F0FC01E20FF31FE491ED9373
:107C70002F5F3F4FF5CF842FB3CF88E084DFFFCF56
:107C8000A1DF843269F018F48330D1F3B7C08B32AE
:107C9000B9F38D3209F0B2C080910402A1DFF0CFB8
:107CA000109204028FDFD0E0E0910402833259F099
:107CB00091E09E0F90930402F0E0E050FF4F80832C
:107CC000D80F80DFF1CFF0E0E050FF4F10827ADF75
:107CD00068DFC82FC295C07F75DF63DF8C2BD81794
:107CE00019F08DE276DFCCCF8BE273DF809100015B
:107CF000883579F038F4873409F47CC0803509F48C
:107D000079C07CC0833609F475C0833709F472C02A
:107D100075C0812C912C5401C0E0EC2FF0E08F0154
:107D20000F5F1E4FF80180813CDF8F3F69F044E018
:107D3000880C991CAA1CBB1C4A95D1F7880E911C73
:107D4000A11CB11CCF5FE9CFC12CD12C7601712CC5
:107D5000C72DD0E0F801EC0FFD1F818122DF8F3F9E
:107D600069F034E0CC0CDD1CEE1CFF1C3A95D1F719
:107D7000C80ED11CE11CF11C7394EACFD501C401DB
:107D800088279927BB27892B8A2B8B2B81F5229655
:107D9000F801EC0FFD1FA2E8B1E0AD0142585140DF
:107DA0004C155D05ACF480818D3771F481818A308A
:107DB00041F028F49DEF980F923030F402C08D35D9
:107DC00019F480628183319680818D933196E5CF5D
:107DD000D501C401AA27BC01CD0196958795779559
:107DE000679582E891E0F7DD85E098E709C081E0DA
:107DF00098E706C085E098E71FDF3FDF80E098E75F
:047E00001BDF3ECF77
:0E7FF00041426A02E43CE03CE23CEB3C403E95
:040000030000780081
:00000001FF
