:1000000084C0000025C70000A8C00000A6C00000F2
:10001000A4C00000A2C00000A0C000000C94660CA8
:100020009CC000009AC0000098C0000096C000006C
:1000300094C0000092C0000090C000008EC000007C
:100040000C94F80C8AC00000A5C6000086C0000011
:1000500084C0000082C0000080C000007EC000009C
:100060007CC000007AC0000071537570706F7274AC
:100070006564007143007166546872656164496E1D
:10008000666F007173546872656164496E666F00D3
:1000900054585832303A58583B32313A58585858D8
:1000A0003B32323A58585858585858583B7468722E
:1000B0006561643A313B0002000000002400270023
:1000C0002A0000000000250028002B00040404047E
:1000D00004040404020202020202030303030303F2
:1000E00001020408102040800102040810200102CF
:1000F00004081020000000080002010000030407AB
:100100000000000000000000BC0A11241FBECFEF59
:10011000D8E0DEBFCDBF11E0A0E0B1E0E4E9F1E25C
:1001200002C005900D92A433B107D9F722E0A4E3F1
:10013000B1E001C01D92A332B207E1F711E0CAE0BD
:10014000D1E004C02297FE010E949110C830D1076F
:10015000C9F70E94EA0C0C94C81052CFCF93DF93DA
:10016000CDB7DEB784E391E090939E0180939D012B
:1001700080919D0190919E01FC01118210828091DD
:100180009D0190919E01FC01168A80919D019091A4
:100190009E0188599F4FFC01108280919D01909192
:1001A0009E01049640E150E060E070E00E94B810CB
:1001B00080919D0190919E01FC01148A80919D0186
:1001C00090919E01FC01158A03D0DF91CF91089593
:1001D000CF93DF93CDB7DEB780EC90E022E0FC0157
:1001E000208381EC90E028E1FC01208382EC90E008
:1001F00026E0FC01208385EC90E0FC01108284EC79
:1002000090E020E1FC01208381EC90E021EC30E0E3
:10021000F90120812068FC012083DF91CF910895AE
:10022000CF93DF93CDB7DEB7000080EC90E0FC0108
:1002300080818823D4F786EC90E0FC018081DF91F7
:10024000CF910895CF93DF931F92CDB7DEB7898307
:10025000000080EC90E0FC018081882F90E08072AB
:1002600099270097B1F386EC90E02981FC01208367
:100270000F90DF91CF9108951F93DF93E0919D013F
:10028000F0919E01148ACCDF8432B9F030F48330CF
:1002900009F062C082E038D7F6CF8B32A1F38D32FD
:1002A00009F05AC080919D0190919E01FC01E8598E
:1002B000FF4F60814796BCD6E6CFE0919D01F0915B
:1002C0009E01E859FF4F1082ABDFD0E020919D01E5
:1002D00030919E01F901E859FF4F833259F0908126
:1002E00041E0490F4083F901E90FF11D878BD80FD9
:1002F00097DFECCF8081F901E80FF11D178A90DFBD
:10030000F9D7182F1295107F8BDFF4D7812BD817D0
:1003100019F08DE297DFB7CF8BE294DF80919D01DA
:1003200090919E0147961FD08111ADCFE0919D0124
:10033000F0919E018489811103C08589882351F041
:10034000809169008C7F80936900529AE09AE89AC4
:100350005A9806C0E89804C08EE191E0A8D693CFE1
:10036000DF911F9108950F931F93FC012081243585
:1003700061F198F4273471F148F42334A9F124345D
:1003800079F12F3389F583E191E030C02D3429F1E3
:10039000233551F12834C9F027C02B3609F140F438
:1003A000233609F47EC0273699F02A35E9F428C0AF
:1003B000213769F128F42D36B9F401967CD317C0A2
:1003C0002337B9F02A37E1F00FC087E191E00EC082
:1003D00063D10DC001967FD20AC001966AD407C0CE
:1003E00087E191E064D65DC08EE191E060D681E066
:1003F00059C0E0919D01F0919E0181E0848B51C034
:1004000080919D0190919E0147964FD0F0CF2AE0B8
:1004100030E048E650E060E070E00E94A210892BD6
:1004200079F48091000190910101FC01019000207C
:10043000E9F7BF0161507109681B790BF9D5D7CF76
:1004400000919D0110919E01095E1F4F22E030E056
:1004500043E750E060E070E0C8010E94A210892BE1
:1004600019F48AE191E0C2CF2CE030E046E750E099
:1004700060E070E0C8010E94A210892B19F48FE19E
:1004800091E0B4CF2CE030E043E850E060E070E071
:10049000C8010E94A210892B09F0A6CF82E291E048
:1004A000A5CF80E01F910F9108950F931F93CF93D5
:1004B000DF93CDB7DEB728970FB6F894DEBF0FBE37
:1004C000CDBF8C01BE016B5F7F4F039624D790E0B8
:1004D0000496BE016F5F7F4F800F911F1CD7F801FC
:1004E00081818033C9F480814D815E816F817885FF
:1004F0008A3541F4DB01CA01B695A7959795879592
:1005000019D007C0DB01CA01B695A79597958795C5
:1005100037D087E191E002C08EE191E0C8D52896FE
:100520000FB6F894DEBF0FBECDBFDF91CF911F9104
:100530000F910895E0919D01F0919E014689DF01A0
:100540001496542F552339F02D913D9128173907D2
:1005500099F05150F7CF483088F421E0240F268BD2
:10056000DF01A40FB11DA40FB11D15969C938E93AE
:10057000149781E0858B089581E0089580E00895C7
:10058000CF93DF9300D000D0CDB7DEB79C838B83B1
:1005900019821A8255C020919D0130919E01898156
:1005A000882F90E00296880F991F820F931FFC01FD
:1005B000208131818B819C8128173907E1F48A8160
:1005C0008F5F8A8380919D0190919E01FC019689A5
:1005D0008A81891780F020919D0130919E01898147
:1005E000882F90E00296880F991F820F931FFC01BD
:1005F000118210822FC040919D0150919E018981EE
:10060000882F90E060919D0170919E012A81222F98
:1006100030E02E5F3F4F220F331F260F371FF901A7
:10062000208131810296880F991F840F951FFC014C
:100630003183208389818F5F89838A818F5F8A8359
:1006400080919D0190919E01FC0196898A81891774
:1006500008F4A1CF9A818981891748F480919D017E
:1006600090919E01FC0126892150FC01268B8091EE
:100670009D0190919E01FC018689882331F480912F
:100680009D0190919E01FC01158A0F900F900F9093
:100690000F90DF91CF910895CF92DF92EF92FF926A
:1006A0000F931F93DF93E0919D01F0919E01428192
:1006B000538160E070E0440F551F661F771F27EEDF
:1006C00031E080E090E0D901DD919D011D2F129570
:1006D0001F70A12FB0E01A9714F0195A01C0105DD5
:1006E000DF01A80FB91F57961C935797DF700D2F86
:1006F00010E00A30110514F0D95A01C0D05D5896A7
:10070000DC93029680349105F1F620910702322F96
:1007100032953F70832F90E00A9714F0395A01C048
:10072000305DDF01A95ABF4F3C932F70822F90E0BC
:100730000A9714F0295A01C0205DDF01A85ABF4F63
:100740002C93808191819C01A4E036952795AA95F0
:10075000E1F7D901AF70BB272F701A9710F0295A13
:1007600001C0205DDF01A75ABF4F2C93A82FAF70A7
:100770009C012F7033272A30310510F027E501C086
:1007800020E32A0FDF01A65ABF4F2C939C01232F91
:10079000332722952F702A30310518F02F70295AEF
:1007A00001C0205DDF01A55ABF4F2C93892F9927E7
:1007B0009C012F7033278F702A30310510F0895A31
:1007C00001C0805DDF01A45ABF4F8C938A019B0159
:1007D000D4E03695279517950795DA95D1F76801F6
:1007E0007901BFE0CB22DD24EE24FF240F708AE0E4
:1007F000C816D104E104F10410F087E501C080E3DC
:10080000800FDF01A35ABF4F8C93842F8F708A0112
:100810009B010F701127222733270A30110521056C
:10082000310510F0895A01C0805DDF01A25ABF4F27
:100830008C938A019B01BCE0369527951795079507
:10084000BA95D1F768017901AFE0CA22DD24EE2420
:10085000FF240F70BAE0CB16D104E104F10410F0CC
:1008600087E501C080E3800FDF01A15ABF4F8C9361
:10087000052F162F272F3327680179018FE0C82213
:10088000DD24EE24FF240F70AAE0CA16D104E1048F
:10089000F10410F087E501C080E3800FDF01A05A6A
:1008A000BF4F8C93119680E38C93119690E3960F33
:1008B0009C9311968C9311968C9314968EE48C9342
:1008C0006EE4CF014796DF911F910F91FF90EF905B
:1008D000DF90CF90ADC35F926F927F928F929F9285
:1008E000AF92BF92CF92DF92EF92FF920F931F933E
:1008F000DF937C018C016C0120E4C20ED11CF80155
:100900008081F8D4D82FF8018181F4D49D2F92955D
:10091000907F982B9093E7010E5F1F4F0C151D05DC
:1009200071F7F8018081E6D4D82FD295D07FF701F6
:10093000EF5BFF4F8081DED48D2B80930702009107
:100940009D0110919E01F701EE5BFF4F8081D2D493
:10095000F0E18F9F50011124F801B182A082F701CC
:10096000ED5BFF4F8081C6D4A82AF801B182A08236
:10097000F701EC5BFF4F8081BDD4C82ED12CDC2C5D
:10098000CC24D294D0EFDD22CA28DB28F801D18212
:10099000C082F701EB5BFF4F8081ACD4D82AF8010D
:1009A000D182C082F701EA5BFF4F8081A3D4F0E1DE
:1009B0008F9FC00111244C01AA2497FCA094BA2C4B
:1009C000F701E95BFF4F808195D4D82EF701E85BF2
:1009D000FF4F80818FD4782EF701E75BFF4F808136
:1009E00089D4D82FF701E65BFF4F808183D4582E3E
:1009F000F701E55BFF4F80817DD4682EF701E45B52
:100A0000FF4F808177D4C82EF701E35BFF4F8081D1
:100A100071D4452D50E060E070E094E1440F551F23
:100A2000661F771F9A95D1F766294D29D12CE12CA5
:100A3000F12C2CE1CC0CDD1CEE1CFF1C2A95D1F70F
:100A40004C295D296E297F29782B482959296A2943
:100A50007B29872D90E0982F88279295907FAA2751
:100A600097FDA095BA2F482B592B6A2B7B2B8D2FE6
:100A700090E0982F8827AA2797FDA095BA2F482B9A
:100A8000592B6A2B7B2B7695679557954795F801DF
:100A90005383428387E191E0DF911F910F91FF9093
:100AA000EF90DF90CF90BF90AF909F908F907F900E
:100AB0006F905F90FCC26F927F928F929F92AF92E5
:100AC000BF92CF92DF92EF92FF920F931F93CF933B
:100AD000DF93CDB7DEB728970FB6F894DEBF0FBE11
:100AE000CDBF8C01BE016B5F7F4F15D49801280FDD
:100AF000311DC901BE016F5F7F4F01960CD48D81FE
:100B00009E81AF81B885AC01BD0144275527772769
:100B10004115510530E86307710509F05FC0AA2748
:100B20008D839E83AF83B8878C0149815A816B8105
:100B30007C8160909D0170909E01D12C8D2C912C18
:100B4000A12CB12C84169506A606B70608F090C015
:100B50002D2D30E07801E20EF31EF701C080D11098
:100B600013C0423051056105710571F4F301E08055
:100B7000F1804701A12CB12C88159905AA05BB0568
:100B800018F0FC2DFF71CF2E220F331FFC2CF29496
:100B9000FFE0FF22E9E0EF1518F4F7E5BF2E02C0F1
:100BA000E0E3BE2EBF0C7301E20EF31EF701B78A1D
:100BB0002F5F3F4FFC2DFF70CF2EEF2EF12CEAE080
:100BC000EE16F1041CF0F7E5CF0E02C0E0E3CE0E06
:100BD000260D371DF901C78AD394B0CF452B462B7C
:100BE000472B09F041C0AA278D839E83AF83B88726
:100BF000F12C0F2D10E020E030E089819A81AB814B
:100C0000BC81081719072A073B0790F56D817E8183
:100C10008F819885600F711F821F931FADD3409104
:100C20009D0150919E012F2D30E0220F331F982FF0
:100C300092959F709A3010F0995A01C0905DFA0118
:100C4000E20FF31F978B2F5F3F4F8F70682F70E07D
:100C50006A30710514F0895A01C0805DFA01E20F13
:100C6000F31F878BF394C5CF84E291E020D20CC0B0
:100C700080919D0190919E016981660FFC01E85968
:100C8000FF4F60834796D4D128960FB6F894DEBF05
:100C90000FBECDBFDF91CF911F910F91FF90EF90CD
:100CA000DF90CF90BF90AF909F908F907F906F908C
:100CB0000895AF92BF92CF92DF92EF92FF920F937F
:100CC0001F93CF93DF93CDB7DEB728970FB6F89475
:100CD000DEBF0FBECDBF7C01BE016B5F7F4F1BD35C
:100CE000E80EF11CBE016F5F7F4FC701019613D361
:100CF0004D815E816F8178858A019B0100271127D4
:100D00003327011511052048310569F566274D8304
:100D10005E836F8378875A01E80EF11CD12CF2E0D4
:100D2000EF0EF11C8D2D90E0A0E0B0E009811A815A
:100D30002B813C8180179107A207B307B8F4850186
:100D40000D0D111DF7018081D5D2C82EC294A0EFE0
:100D5000CA22F801C082F7018181CCD28C29F80126
:100D60008083D394DCCF84E291E002C087E191E0FC
:100D70009ED128960FB6F894DEBF0FBECDBFDF918F
:100D8000CF911F910F91FF90EF90DF90CF90BF9088
:100D9000AF900895F0930602E0930502F1E0E7EECC
:100DA000D58FDFB7D068D0A3C48FD0E0C0E0B38FB9
:100DB000B991B193CB31E1F7BF91AF91A087B187E2
:100DC000ADB7BEB7A683B783112486EE91E09EBF70
:100DD0008DBF8BE092E02BE032E0F90120812F7192
:100DE000FC01208380919D0190919E0120910A0237
:100DF00030910B02FC013383228380919D019091FD
:100E00009E012091080230910902FC013183208368
:100E100033DAF1E0E7EED0E0C0E0B191B993CC3144
:100E2000E1F7D581DDBFD681DEBFD781DF93D085E5
:100E3000DF93C081D181E281F0910702F7FF05C005
:100E4000FF77FFBFF09106021895FFBFF0910602F1
:100E5000F0930602E0930502F1E0E7EED58FDFB7ED
:100E6000D068D0A3C48FD0E0C0E0B38FB991B19364
:100E7000CB31E1F7BF91AF91A087B187ADB7BEB7D6
:100E8000A683B783112486EE91E09EBF8DBF8BE0D1
:100E900092E02BE032E0F90120812F71FC012083E8
:100EA00080919D0190919E0120910A0230910B0248
:100EB000FC013383228380919D0190919E012091BA
:100EC000080230910902FC013183208380919D0149
:100ED00090919E01FC018489882309F036C080919D
:100EE0009D0190919E01FC018589882369F11092F2
:100EF0000C0220C020919D0130919E0180910C0236
:100F0000882F90E00296880F991F820F931FFC0193
:100F10002081318180919D0190919E01FC0182810F
:100F200093812817390709F410C080910C028F5F54
:100F300080930C0280919D0190919E01FC01968905
:100F400080910C028917B0F203C085E0DDD094D9FE
:100F500080EC90E0FC01808188234CF48DE390E0EC
:100F60002DE330E0F90120812E7FFC012083F1E0A8
:100F7000E7EED0E0C0E0B191B993CC31E1F7D58193
:100F8000DDBFD681DEBFD781DF93D085DF93C081FF
:100F9000D181E281F0910702F7FF05C0FF77FFBF23
:100FA000F09106021895FFBFF0910602F093060239
:100FB000E0930502F1E0E7EED58FDFB7F894D0A318
:100FC000C48FD0E0C0E0B38FB991B193CB31E1F7DA
:100FD000BF91AF91A087B187ADB7BEB7A683B783E6
:100FE000112486EE91E09EBF8DBF8BE092E02BE056
:100FF00032E0F90120812F71FC01208380919D0155
:1010000090919E0120910A0230910B02FC013383E2
:10101000228380919D0190919E0120910802309140
:101020000902FC013183208385E06ED025D99FCF52
:10103000DF92EF92FF920F931F93CF93DF931F9254
:10104000CDB7DEB7E82EF62E84E29983FBD80E2DBD
:101050009981192FD12CFE0CF01641F0F8018081F6
:10106000F1D8F80181918F01D80EF6CF83E2EAD84A
:101070008D2D82958F70282F30E02A30310514F0A5
:10108000895A01C0805DDED88D2D8F70282F30E009
:101090002A30310514F0895A01C0805D0F90DF912C
:1010A000CF911F910F91FF90EF90DF90CBC8EF92FF
:1010B000FF920F931F93BC0180919D0190919E011F
:1010C000FB0101900020E9F73197E61BF70B8C013B
:1010D00008591F4FED3418F4D801EC9303C02CE4E9
:1010E000F80120837C01F7E1EF0EF11CD8014C914F
:1010F00050E0C7010E94AF10F8016081C7011F9145
:101100000F91FF90EF9094CFCF92DF92EF92FF92EA
:101110000F931F93182FE0919D01F0919E01C280C3
:10112000D380E12CF12CCC0CDD1CEE1CFF1C46E224
:1011300050E060E970E0CF014796FBD7E0919D0158
:10114000F0919E01DF01A859BF4F86E28C93912F49
:1011500092959F70292F30E02A30310514F0995A6A
:1011600001C0905D908F812F8F70282F30E02A3042
:10117000310514F0895A01C0805D818F20910702EA
:1011800022952F70822F90E00A9714F0295A01C0FF
:10119000205D258F209107022F70822F90E00A9703
:1011A00014F0295A01C0205D268F808191819C0115
:1011B00054E0369527955A95E1F7A9014F705527C8
:1011C0002F704A30510510F0295A01C0205D23A329
:1011D000482F4F709C012F7033272A30310510F0B3
:1011E00027E501C020E3240F24A39C01232F3327EC
:1011F00022952F702A30310518F02F70295A01C01E
:10120000205D25A3892F99279C012F7033278F708C
:101210002A30310510F0895A01C0805D86A3B701DC
:10122000A60104E076956795579547950A95D1F7FD
:101230008A019B010F701127222733274F700A3034
:1012400011052105310510F087E501C080E3840F09
:1012500083A78C2D8F70B701A6014F705527662785
:1012600077274A3051056105710510F0895A01C090
:10127000805D84A7B701A6011CE076956795579518
:1012800047951A95D1F78A019B010F7011272227E4
:1012900033274F700A3011052105310510F087E51D
:1012A00001C080E3840F85A777276F2D5E2D4D2D1C
:1012B0008A019B010F701127222733274F700A30B4
:1012C00011052105310510F087E501C080E3840F89
:1012D00086A780E387A790E39E0D90AB81AB82AB9E
:1012E00066E2CF0147961F910F91FF90EF90DF903C
:1012F000CF909ECE9FEB980F963010F487530895B1
:101300009FE9980F963010F48755089580538A30DE
:1013100008F08FEF0895EF92FF920F931F93DF93E2
:101320007C018B01FB011082118212821382D0E0BA
:10133000F701ED0FF11D8081DDDF8F3FB1F0F80186
:101340004081518162817381A4E0440F551F661F63
:10135000771FAA95D1F7480F511D611D711D40835C
:10136000518362837383DF5FE3CF8D2FDF911F9102
:101370000F91FF90EF900895CF93DF93CDB7DEB735
:1013800027970FB6F894DEBF0FBECDBF6C837D8369
:101390008E839F838C819D819A83898389819A81A1
:1013A000FC0184918B838B8127960FB6F894DEBF66
:1013B0000FBECDBFDF91CF910895CF93DF93CDB70F
:1013C000DEB780E090E0009751F080E090E0009779
:1013D00031F00E940000882311F081E001C080E01C
:1013E000882311F00E940000DF91CF910895CF93E0
:1013F000DF9300D0CDB7DEB79A83898389819A8144
:1014000022E331E0FC01318320830F900F90DF91C4
:10141000CF9108950F93CF93DF9300D000D000D0E9
:10142000CDB7DEB79A8389836B834C832D830E837C
:1014300089819A81DCDF89819A812CE231E0FC018B
:101440003183208389819A812B81FC0122838981C8
:101450009A812C81FC01238389819A812D81FC0151
:10146000248389819A812E81FC01258326960FB6DB
:10147000F894DEBF0FBECDBFDF91CF910F910895DD
:10148000CF93DF93CDB7DEB728970FB6F894DEBFC2
:101490000FBECDBF9E838D8378876F831A8219829A
:1014A0001C821B8224C02D813E818B819C81820FF6
:1014B000931F0296FC0120818F8198854AE050E0BD
:1014C000622FB2D029813A81820F931F9A83898338
:1014D0008F8198856EE28CD029813A81820F931F8B
:1014E0009A8389838B819C8101969C838B838B81DA
:1014F0009C8183309105BCF28D819E81FC01258108
:101500008F8198854AE050E0622F8ED029813A8100
:10151000820F931F9A83898389819A8128960FB6B7
:10152000F894DEBF0FBECDBFDF91CF9108950F932A
:10153000CF93DF9300D000D0CDB7DEB79A838983F5
:101540007C836B8389819A818130910569F48B81D9
:101550009C818F3F2FEF920739F400E020E040E0BC
:1015600060E08DE092E056DF0F900F900F900F90AB
:10157000DF91CF910F910895CF93DF93CDB7DEB771
:101580006FEF7FEF81E090E0D2DFDF91CF910895A0
:101590000F931F93CF93DF9300D000D0CDB7DEB76A
:1015A0009A8389837C836B838B819C81009719F458
:1015B00080E090E014C089819A81FC018081918152
:1015C0000296FC01008111818B819C81D8D5AC01F0
:1015D0002B813C8189819A81B901F80109950F908D
:1015E0000F900F900F90DF91CF911F910F91089561
:1015F000CF93DF9300D01F92CDB7DEB79A83898354
:101600006B8389819A81FC0180819181FC01208119
:10161000318189819A816B81F90109950F900F9031
:101620000F90DF91CF910895CF93DF9300D000D03A
:101630001F92CDB7DEB79A8389836B835D834C831A
:101640008B81882F90E0A0E0B0E02C813D81E98182
:10165000FA81AC01BD01CF0108D00F900F900F901F
:101660000F900F90DF91CF910895CF93DF93CDB777
:10167000DEB728970FB6F894DEBF0FBECDBF9A83B2
:1016800089834B835C836D837E8338872F838F812F
:101690009885009779F489819A81FC0180819181F4
:1016A000FC01208131814B8189819A81642FF9016C
:1016B00009950BC02F818B819C81AD81BE81E98111
:1016C000FA81AC01BD01CF0109D028960FB6F8947C
:1016D000DEBF0FBECDBFDF91CF910895CF93DF93D3
:1016E000CDB7DEB7E3970FB6F894DEBF0FBECDBF20
:1016F0009AA789A74BA75CA76DA77EA72FA780E213
:1017000090E09E01285F3F4F820F931F9A83898349
:1017100089819A81FC0110828FA5823010F48AE0C1
:101720008FA78BA59CA5ADA5BEA58B839C83AD8300
:10173000BE838FA5282F30E040E050E08BA59CA50C
:10174000ADA5BEA5BC01CD01C8D4DA01C9018BA7E6
:101750009CA7ADA7BEA79B812BA58FA5289F802DF9
:101760001124F92FF81B8F2F8F8389819A8101977C
:101770009A8389838F818A3020F48F8120E3280F18
:1017800003C08F8127E3280F89819A81FC01208380
:101790008BA59CA5ADA5BEA50097A105B10509F037
:1017A000C0CF29813A8189A59AA5B901F1DEE396D6
:1017B0000FB6F894DEBF0FBECDBFDF91CF91089575
:1017C000CF93DF931F92CDB7DEB789838981882FAE
:1017D00090E08130910551F08230910589F00097B9
:1017E00061F58EE690E0FC01108227C08FE690E064
:1017F0002FE630E0F90120812D7FFC0120831DC000
:1018000080E790E020E730E0F90120812D7FFC01A6
:10181000208380EB90E021E0FC01208381EB90E0CD
:1018200021EB30E0F9012081287F2460FC01208336
:1018300083EB90E0FC01108200000F90DF91CF91CC
:101840000895CF93DF93CDB7DEB727970FB6F894FF
:10185000DEBF0FBECDBF8F838FEF89831B821A82BD
:1018600022C08A819B818E5F9E4FFC0190818F8177
:101870009817A1F48A819B8189549F4F9D838C8303
:101880008C819D81FC0184918E838E8189838A81E4
:101890009B818E5F9E4F2FEFFC0120838A819B816D
:1018A00001969B838A838A819B8118161906CCF640
:1018B000898186DF60E08F8165D327960FB6F89423
:1018C000DEBF0FBECDBFDF91CF9108951F920F9263
:1018D00000905F000F9211242F933F934F935F93DB
:1018E0006F937F938F939F93AF93BF93EF93FF93E8
:1018F000CF93DF93CDB7DEB780911302909114029E
:10190000A0911502B091160221E00097A105B10542
:1019100009F420E02223A1F14091190280911702DD
:10192000909118022091170230911802F90120813C
:101930002427FC0120838091130290911402A0912E
:101940001502B091160221E0181619061A061B0698
:101950000CF020E02223B9F0809113029091140240
:10196000A0911502B09116020197A109B1098093C7
:10197000130290931402A0931502B093160203C0B1
:10198000809102015EDFDF91CF91FF91EF91BF91D6
:10199000AF919F918F917F916F915F914F913F9107
:1019A0002F910F9000925F000F901F901895CF938A
:1019B000DF93CDB7DEB7B9D3CF93DF93CDB7DEB723
:1019C000DF91CF910895CF93DF93CDB7DEB7DF914D
:1019D000CF910895CF93DF93CDB7DEB71CD1F3DF5E
:1019E00057D362D38DED99E0009709F0E6DCF9CF8B
:1019F0001F920F9200905F000F9211248F939F937C
:101A0000AF93BF93CF93DF93CDB7DEB72597DEBFFC
:101A1000CDBF80911E0290911F02A0912002B09133
:101A2000210289839A83AB83BC83809122028D83B8
:101A300089819A81AB81BC810196A11DB11D8983E9
:101A40009A83AB83BC838D818D5F8D838D818D3730
:101A500070F08D818D578D8389819A81AB81BC8196
:101A60000196A11DB11D89839A83AB83BC838D81AF
:101A70008093220289819A81AB81BC8180931E026E
:101A800090931F02A0932002B093210280911A022A
:101A900090911B02A0911C02B0911D020196A11D04
:101AA000B11D80931A0290931B02A0931C02B09365
:101AB0001D020F900F900F900F900F90DF91CF911C
:101AC000BF91AF919F918F910F9000925F000F9007
:101AD0001F901895CF93DF9300D000D000D0CDB7E2
:101AE000DEB78FE590E0FC0180818D83F8948091D2
:101AF0001A0290911B02A0911C02B0911D028983D1
:101B00009A83AB83BC8386E490E0FC0180818E8362
:101B100085E390E0FC018081882F90E08170992717
:101B2000009771F08E818F3F59F089819A81AB8146
:101B3000BC810196A11DB11D89839A83AB83BC83AF
:101B40008FE590E02D81FC01208389819A81AB8112
:101B5000BC812227382F492F5A2F8E81882F90E061
:101B6000A0E0B0E0820F931FA41FB51F880F991F3C
:101B7000AA1FBB1F880F991FAA1FBB1FBC01CD0145
:101B800026960FB6F894DEBF0FBECDBFDF91CF9182
:101B90000895CF93DF9300D000D000D0CDB7DEB74B
:101BA0006B837C838D839E8395DFDC01CB019A83DD
:101BB000898320C001DF8EDFDC01CB019C0189819C
:101BC0009A81A901481B590BCA01883E53E0950729
:101BD00088F08B819C81AD81BE810197A109B109FB
:101BE0008B839C83AD83BE8389819A8188519C4F6E
:101BF0009A8389838B819C81AD81BE810097A105E9
:101C0000B105C1F626960FB6F894DEBF0FBECDBF64
:101C1000DF91CF910895CF93DF93CDB7DEB778945E
:101C200084E490E024E430E0F90120812260FC01AA
:101C3000208384E490E024E430E0F90120812160F5
:101C4000FC01208385E490E025E430E0F901208167
:101C50002260FC01208385E490E025E430E0F90176
:101C600020812160FC0120838EE690E02EE630E0AA
:101C7000F90120812160FC01208381E890E0FC01D2
:101C8000108281E890E021E830E0F90120812260B3
:101C9000FC01208381E890E021E830E0F901208117
:101CA0002160FC01208380E890E020E830E0F90129
:101CB00020812160FC01208381EB90E021EB30E06A
:101CC000F90120812460FC01208380EB90E020EB6F
:101CD00030E0F90120812160FC0120838AE790E057
:101CE0002AE730E0F90120812460FC0120838AE7A3
:101CF00090E02AE730E0F90120812260FC01208396
:101D00008AE790E02AE730E0F90120812160FC01B8
:101D100020838AE790E02AE730E0F90120812068FB
:101D2000FC01208381EC90E0FC011082DF91CF91D7
:101D30000895CF93DF93CDB7DEB769970FB6F894C8
:101D4000DEBF0FBECDBF888F698F888D882F90E052
:101D500080529F4F9A83898389819A81FC01849163
:101D60008B838B818C83888D882F90E084539F4F49
:101D70009E838D838D819E81FC0184918F838F81D1
:101D800088878885882309F494C08885882F90E007
:101D9000880F991F88549F4F9A87898789859A85CC
:101DA000FC0125913491CF013C872B879A87898745
:101DB0008B859C859E878D878885882F90E0880FEE
:101DC000991F8E539F4F988B8F878F859889FC0121
:101DD00025913491CF013A8B298B988B8F878989F4
:101DE0009A899C8B8B8B898D882331F58FE590E0C8
:101DF000FC0180818D8BF8948D859E85FC0180810E
:101E0000982F8C8180958923282F8D859E85FC01B4
:101E100020838B899C89FC018081982F8C818095FF
:101E20008923282F8B899C89FC0120838FE590E0F2
:101E30002D89FC0120833DC0898D823021F58FE5FD
:101E400090E0FC0180818E8BF8948D859E85FC014D
:101E50008081982F8C8180958923282F8D859E8560
:101E6000FC0120838B899C89FC0190818C81292F26
:101E7000282B8B899C89FC0120838FE590E02E899B
:101E8000FC01208316C08FE590E0FC0180818F8BE0
:101E9000F8948D859E85FC0190818C81292F282BBB
:101EA0008D859E85FC0120838FE590E02F89FC01C4
:101EB000208369960FB6F894DEBF0FBECDBFDF91C9
:101EC000CF910895CF93DF931F92CDB7DEB789836B
:101ED0008981882F90E083309105A1F084309105AD
:101EE0003CF48130910511F18230910549F146C0F1
:101EF0008730910579F188309105B1F184309105F1
:101F000059F03CC080E890E020E830E0F901208101
:101F10002F77FC01208332C080E890E020E830E099
:101F2000F90120812F7DFC01208328C084E490E00A
:101F300024E430E0F90120812F77FC0120831EC0CA
:101F400084E490E024E430E0F90120812F7DFC015D
:101F5000208314C080EB90E020EB30E0F901208179
:101F60002F77FC0120830AC080EB90E020EB30E06B
:101F7000F90120812F7DFC01208300000F90DF916B
:101F8000CF910895CF93DF93CDB7DEB765970FB6A6
:101F9000F894DEBF0FBECDBF8C8B6D8B8C89882FE4
:101FA00090E08C509F4F9A83898389819A81FC01AC
:101FB00084918B838B818C838C89882F90E08052D5
:101FC0009F4F9E838D838D819E81FC0184918F83A1
:101FD0008F8188878C89882F90E084539F4F9A87C0
:101FE000898789859A85FC0184918B878B858C876D
:101FF0008C85882309F443C08C81882311F08C815F
:1020000061DF8C85882F90E0880F991F8E539F4F3A
:102010009E878D878D859E85FC0125913491CF010A
:10202000388B2F879E878D878F8598899A8B898B90
:102030008FE590E0FC0180818B8BF8948D8988235B
:1020400071F489899A89FC018081982F888580950F
:102050008923282F89899A89FC0120830BC08989CB
:102060009A89FC0190818885292F282B89899A8952
:10207000FC0120838FE590E02B89FC01208365968D
:102080000FB6F894DEBF0FBECDBFDF91CF9108959C
:10209000CF93DF93CDB7DEB70E94AE0061E08DE055
:1020A00048DEDF91CF910895CF93DF93CDB7DEB7B0
:1020B0000E94D60761E08DE065DF68EC70E080E0AB
:1020C00090E067DD60E08DE05DDF64EF71E080E06F
:1020D00090E05FDDDF91CF910895A1E21A2EAA1B57
:1020E000BB1BFD010DC0AA1FBB1FEE1FFF1FA217C8
:1020F000B307E407F50720F0A21BB30BE40BF50BC5
:10210000661F771F881F991F1A9469F7609570954D
:10211000809590959B01AC01BD01CF010895EE0F14
:10212000FF1F0590F491E02D099481E090E0F89470
:102130002FC0FB01DC0102C005900D9241505040C0
:10214000D8F70895FA01DC0104C08D91059080193B
:1021500021F421503040C8F7881B990B0895FB01EA
:10216000DC0102C001900D9241505040D8F7089513
:10217000DC0101C06D9341505040E0F70895FC012F
:1021800001900020E9F7809590958E0F9F1F08958C
:04219000F894FFCFF1
:102194000301FF5061636B657453697A653D307860
:1021A400353000533035004F4B0051433031006D12
:1021B40031006C004530350000000000400A00008A
:0421C4000000D70C34
:00000001FF
