:1000000084C000000C940308A8C00000A6C0000033
:10001000A4C00000A2C00000A0C000000C94F10920
:100020009CC000009AC0000098C0000096C000006C
:1000300094C0000092C0000090C000008EC000007C
:100040000C94580A8AC000008CC7000086C00000CB
:1000500084C0000082C0000080C000007EC000009C
:100060007CC000007AC0000054585832303A5858CA
:100070003B32313A585858583B32323A585858580F
:10008000585858583B7468726561643A313B007146
:1000900073546872656164496E666F007166546876
:1000A00072656164496E666F0071430071537570CB
:1000B000706F7274656400020000000800020100A5
:1000C0000003040700000000000000000102040813
:1000D00010204080010204081020010204081020B2
:1000E00004040404040404040202020202020303DE
:1000F0000303030300000000250028002B0000007C
:100100000000240027002A001F0911241FBECFEF82
:10011000D8E0DEBFCDBF11E0A0E0B1E0ECE5F8E152
:1001200002C005900D92AC32B107D9F722E0ACE2E3
:10013000B1E001C01D92AB31B207E1F711E0CAE0B6
:10014000D1E004C02297FE010E94090CC830D107FB
:10015000C9F70E944E0A0C942C0C52CF82E0809377
:10016000C000E1ECF0E088E1808386E08093C2008B
:100170001092C50080E18093C400808180688083F4
:100180000895E0ECF0E080818823ECF78091C600D0
:100190000895E0ECF0E0908195FFFDCF8093C600DC
:1001A0000895E0919A01F0919B014689DF01149630
:1001B000542F552339F02D913D912817390799F087
:1001C0005150F7CF483088F421E0240F268BDF010F
:1001D000A40FB11DA40FB11D15969C938E93149777
:1001E00081E0858B089581E0089580E00895CF93A4
:1001F000DF93E0919A01F0919B01C689CC23B1F184
:1002000060E070E0272F30E0D901AA0FBB1FAE0FCE
:10021000BF1F14964D915C9115974817590769F4C3
:100220006F5F6C1750F02E5F3F4FD901AA0FBB1FB5
:10023000AE0FBF1F1D921C9212C0C62FD0E0229697
:10024000CC0FDD1FCE0FDF1F2881398115963C931F
:100250002E9314977F5F6F5FC6896C1798F276179D
:1002600010F4C150C68B8689811101C0158ADF91B7
:10027000CF910895CF92DF92FF920F931F93CF9368
:10028000DF931F92CDB7DEB7F82E062F84E2998355
:1002900080DFCF2C9981D92E10E00F0D0C1541F085
:1002A000F601808176DFF60181916F01180FF6CF9C
:1002B00083E26FDF812F82958F70282F30E02A3004
:1002C000310514F0895A01C0805D63DF1F70212F52
:1002D00030E02A30310514F087E501C080E3810F5A
:1002E0000F90DF91CF911F910F91FF90DF90CF90F2
:1002F00050CFCF92DF92EF92FF920F931F93CF9345
:10030000DF93E0919A01F0919B014281538160E07B
:1003100070E0440F551F661F771FADE2B1E080E02B
:1003200090E01D91C12FC295CF702C2F30E02A3064
:10033000310514F027E501C020E32C0FEF01C80FB1
:10034000D91F2F8B1F70212F30E02A30310514F078
:10035000195A01C0105D188F02968034910509F773
:1003600020914D01322F32953F70832F90E00A97F4
:1003700014F0395A01C0305DDF01A95ABF4F3C93D8
:100380002F70822F90E00A9714F0295A01C0205D47
:10039000DF01A85ABF4F2C93808191819C01D4E04A
:1003A00036952795DA95E1F7D901AF70BB272F7005
:1003B0001A9710F0295A01C0205DDF01A75ABF4FDC
:1003C0002C93A82FAF709C012F7033272A30310552
:1003D00010F027E501C020E32A0FDF01A65ABF4F26
:1003E0002C939C01232F332722952F702A3031051F
:1003F00018F02F70295A01C0205DDF01A55ABF4FA8
:100400002C93892F99279C012F7033278F702A30C6
:10041000310510F0895A01C0805DDF01A45ABF4F39
:100420008C938A019B01A4E0369527951795079533
:10043000AA95D1F7680179018FE0C822DD24EE2466
:10044000FF240F708AE0C816D104E104F10410F013
:1004500087E501C080E3800FDF01A35ABF4F8C9373
:10046000842F8F708A019B010F7011272227332759
:100470000A3011052105310510F0895A01C0805D4F
:10048000DF01A25ABF4F8C938A019B019CE03695F5
:100490002795179507959A95D1F7680179018FE00F
:1004A000C822DD24EE24FF240F708AE0C816D10490
:1004B000E104F10410F087E501C080E3800FDF0163
:1004C000A15ABF4F8C93052F162F272F3327680172
:1004D00079018FE0C822DD24EE24FF240F708AE02A
:1004E000C816D104E104F10410F087E501C080E3EF
:1004F000800FDF01A05ABF4F8C93119680E38C933D
:10050000119690E3960F9C9311968C9311968C9371
:1005100014968EE48C936EE4CF014796DF91CF91D1
:100520001F910F91FF90EF90DF90CF90A3CEFB0132
:1005300084910895CF92DF92EF92FF920F931F93D1
:10054000182FE0919A01F0919B01C280D380E12C99
:10055000F12CCC0CDD1CEE1CFF1C46E250E068E6E2
:1005600070E0CF0147960E940D0CE0919A01F09146
:100570009B01DF01A859BF4F86E28C93912F929582
:100580009F70292F30E02A30310514F0995A01C0AC
:10059000905D908F812F8F70282F30E02A303105A9
:1005A00014F0895A01C0805D818F20914D01229500
:1005B0002F70822F90E00A9714F0295A01C0205D15
:1005C000258F20914D012F70822F90E00A9714F013
:1005D000295A01C0205D268F808191819C0154E0C1
:1005E000369527955A95E1F7A9014F7055272F7039
:1005F0004A30510510F0295A01C0205D23A3482F2D
:100600004F709C012F7033272A30310510F027E5F9
:1006100001C020E3240F24A39C01232F332722951C
:100620002F702A30310518F02F70295A01C0205D33
:1006300025A3892F99279C012F7033278F702A308B
:10064000310510F0895A01C0805D86A3B701A6016B
:1006500094E076956795579547959A95D1F78A01D5
:100660009B010F701127222733274F700A30110585
:100670002105310510F087E501C080E3840F83A7D1
:100680008C2D8F70B701A6014F70552766277727ED
:100690004A3051056105710510F0895A01C0805D2D
:1006A00084A7B701A6018CE0769567955795479585
:1006B0008A95D1F78A019B010F70112722273327D2
:1006C0004F700A3011052105310510F087E501C092
:1006D00080E3840F85A777276F2D5E2D4D2D8A012E
:1006E0009B010F701127222733274F700A30110505
:1006F0002105310510F087E501C080E3840F86A74E
:1007000080E387A790E39E0D90AB81AB82AB66E25E
:10071000CF0147961F910F91FF90EF90DF90CF9000
:10072000A9CD0F931F93CF93DF93BC0100919A0142
:1007300010919B01FC0101900020E9F73197E81B23
:10074000F90BE801C859DF4FED3410F4E88302C01B
:100750008CE48883095E1F4F488150E0C8010E94E5
:10076000230C6881C801DF91CF911F910F9182CD39
:100770009FE9980F963010F48755089580538A307A
:1007800008F08FEF08959FEB980F963010F4875381
:100790000895EECFFF920F931F93CF93DF938C01B9
:1007A000EB01188219821A821B82F12CF801EF0DDD
:1007B000F11D8081E8DF8F3FA9F0488159816A816E
:1007C0007B81E4E0440F551F661F771FEA95D1F740
:1007D000480F511D611D711D488359836A837B83B6
:1007E000F394E4CF8F2DDF91CF911F910F91FF9064
:1007F00008956F927F928F929F92AF92BF92CF9205
:10080000DF92EF92FF920F931F93CF93DF93CDB7B9
:10081000DEB728970FB6F894DEBF0FBECDBF8C01B0
:10082000BE016B5F7F4FB6DF9801280F311DC901F4
:10083000BE016F5F7F4F0196ADDF8D819E81AF81DD
:10084000B885AC01BD0144275527772741155105CF
:1008500030E86307710509F05FC0AA278D839E8386
:10086000AF83B8878C0149815A816B817C8160900C
:100870009A0170909B01D12C8D2C912CA12CB12C24
:1008800084169506A606B70608F090C02D2D30E018
:100890007801E20EF31EF701C080D11013C0423080
:1008A00051056105710571F4F301E080F1804701A4
:1008B000A12CB12C88159905AA05BB0518F0FC2DB3
:1008C000FF71CF2E220F331FFC2CF294FFE0FF228A
:1008D000E9E0EF1518F4F7E5BF2E02C0E0E3BE2E05
:1008E000BF0C7301E20EF31EF701B78A2F5F3F4F73
:1008F000FC2DFF70CF2EEF2EF12CEAE0EE16F10466
:100900001CF0F7E5CF0E02C0E0E3CE0E260D371D3A
:10091000F901C78AD394B0CF452B462B472B09F05A
:1009200041C0AA278D839E83AF83B887F12C0F2DFA
:1009300010E020E030E089819A81AB81BC8108170A
:1009400019072A073B0790F56D817E818F81988575
:10095000600F711F821F931FEADD40919A01509131
:100960009B012F2D30E0220F331F982F92959F70FF
:100970009A3010F0995A01C0905DFA01E20FF31F0E
:10098000978B2F5F3F4F8F70682F70E06A30710533
:1009900014F0895A01C0805DFA01E20FF31F878BC2
:1009A000F394C5CF81E091E0BCDE0CC080919A0148
:1009B00090919B016981660FFC01E859FF4F6083AC
:1009C000479658DC28960FB6F894DEBF0FBECDBF11
:1009D000DF91CF911F910F91FF90EF90DF90CF901B
:1009E000BF90AF909F908F907F906F9008950F93DE
:1009F0001F93CF93DF93CDB7DEB728970FB6F89448
:100A0000DEBF0FBECDBF8C01BE016B5F7F4F039673
:100A1000C1DE90E00496BE016F5F7F4F800F911F93
:100A2000B9DEF80181818033C9F480814D815E8116
:100A30006F8178858A3541F4DB01CA01B695A795A7
:100A400097958795AEDB07C0DB01CA01B695A795E0
:100A500097958795CCDB85E091E002C08BE191E032
:100A600060DE28960FB6F894DEBF0FBECDBFDF91D3
:100A7000CF911F910F9108956F927F928F929F92C5
:100A8000AF92BF92CF92DF92EF92FF920F931F939C
:100A9000CF93DF935C01EC018C01005C1F4F8881D8
:100AA00072DEF82E89816FDE9F2D9295907F982BB4
:100AB00090932D012296C017D10789F7888163DEB4
:100AC000C82FC295C07FF501EF5BFF4F80815BDED1
:100AD0008C2B80934D01C0919A01D0919B01F5011F
:100AE000EE5BFF4F80814FDE20E1829F7001112479
:100AF000F982E882F501ED5BFF4F808144DEE82A50
:100B0000F982E882F501EC5BFF4F80813CDE082F23
:100B100010E0102F00271295107F0E291F2919832E
:100B20000883F501EB5BFF4F80812DDE182B1983C5
:100B30000883F501EA5BFF4F808125DE20E1829F7B
:100B4000C00111246C01EE24D7FCE094FE2CF501C9
:100B5000E95BFF4F808117DE182FF501E85BFF4F3F
:100B6000808111DE882EF501E75BFF4F80810BDE6F
:100B7000982EF501E65BFF4F808105DE682EF501BA
:100B8000E55BFF4F8081FFDD782EF501E45BFF4FD1
:100B90008081F9DD082FF501E35BFF4F8081F3DDF4
:100BA000462D50E060E070E094E1440F551F661F51
:100BB000771F9A95D1F76729412B10E020E030E0AC
:100BC000ECE1000F111F221F331FEA95D1F7402BD4
:100BD000512B622B732B782B4C295D296E297F2991
:100BE000882D90E0982F88279295907FAA2797FDCF
:100BF000A095BA2F482B592B6A2B7B2B892D90E07F
:100C0000982F8827AA2797FDA095BA2F482B592BF4
:100C10006A2B7B2B76956795579547955B834A831F
:100C200085E091E0DF91CF911F910F91FF90EF90C0
:100C3000DF90CF90BF90AF909F908F907F906F90FC
:100C400070CD8F929F92BF92CF92DF92EF92FF92E0
:100C50000F931F93CF93DF93CDB7DEB728970FB6CF
:100C6000F894DEBF0FBECDBF8C01BE016B5F7F4F1E
:100C700091DD080F111DBE016F5F7F4FC801019606
:100C800089DD4D815E816F8178856A017B01CC248D
:100C9000DD24FF24C114D10490E8E906F10461F5D4
:100CA00066274D835E836F8378874A01080F111D85
:100CB000B12C0E5F1F4FCB2CD12CE12CF12C898154
:100CC0009A81AB81BC81C816D906EA06FB06B8F446
:100CD0007401EB0CF11CF801808155DDD82ED29403
:100CE00080EFD822F701D082F80181814CDD8D2977
:100CF000F7018083B394DDCF81E091E002C085E00D
:100D000091E00FDD28960FB6F894DEBF0FBECDBF81
:100D1000DF91CF911F910F91FF90EF90DF90CF90D7
:100D2000BF909F908F900895CF93DF93FC01208117
:100D3000243561F198F4273471F148F42334A9F192
:100D4000243479F12F3389F588E091E030C02D34D7
:100D500029F1233551F12834C9F027C02B3609F188
:100D600040F4233609F46FC0273699F02A35E9F4A8
:100D700028C0213769F128F42D36B9F4019639DD00
:100D800017C02337B9F02A37E1F00FC085E091E0B2
:100D90000EC0AFDA0DC001966FDE0AC0019651DFBA
:100DA00007C085E091E0BDDC4EC08BE191E0B9DC8D
:100DB00081E04AC0E0919A01F0919B0181E0848B2F
:100DC00042C080919A0190919B01479610DEF0CF2E
:100DD0002AE030E04CEA50E060E070E027D5892B53
:100DE00029F46FE08CE091E045DAE2CFC0919A01FE
:100DF000D0919B01679622E030E049EA50E060E044
:100E000070E0CE0113D5892B19F48CE191E0CFCF9E
:100E10002CE030E04CE950E060E070E0CE0106D517
:100E2000892B19F481E291E0C2CF2CE030E04FE849
:100E300050E060E070E0CE01F9D4892B09F0B5CF25
:100E400084E291E0B4CF80E0DF91CF910895FF92EA
:100E50000F931F93CF93DF93E0919A01F0919B0141
:100E6000148A8FD98432B9F030F4833009F057C036
:100E700082E060DBF6CF8B32A1F38D3209F04FC0F8
:100E800080919A0190919B01FC01E859FF4F60818C
:100E90004796F0D9E6CFC0919A01D0919B018E017F
:100EA00008591F4FF80110826CD9F12CF8018332D8
:100EB00059F0908121E0290F2083FE01E90FF11DF7
:100EC000878BF80E5ED9F2CF8081FE01E80FF11D0D
:100ED000178A57D958DC182F1295107F52D953DC36
:100EE000812BF81619F08DE254D9BBCF8BE251D982
:100EF000CE01479619DF8111B4CF8C89811103C0CF
:100F00008D89882351F0809169008C7F80936900DE
:100F1000529AE09AE89A5A9806C0E89804C08BE181
:100F200091E0FFDB9ECFDF91CF911F910F91FF905A
:100F30000895ECE9F1E0F0939B01E0939A011182AE
:100F400010821092B2011092040280E1E0EAF1E016
:100F5000DF011D928A95E9F71092B0011092B1015C
:100F6000FDC8F0934C01E0934B01F1E0EDE2D58F29
:100F7000DFB7D068D0A3C48FD0E0C0E0B38FB99101
:100F8000B193CB31E1F7BF91AF91A087B187ADB7F6
:100F9000BEB7A683B783112489E991E09EBF8DBFB8
:100FA000EDE2F1E084A18F7184A3A0919A01B09148
:100FB0009B0183A194A113969C938E93129781A178
:100FC00092A18D939C9343DFF1E0EDE2D0E0C0E08D
:100FD000B191B993CC31E1F7D581DDBFD681DEBFC8
:100FE000D781DF93D085DF93C081D181E281F091F9
:100FF0004D01F7FF05C0FF77FFBFF0914C01189539
:10100000FFBFF0914C01F0934C01E0934B01F1E0F4
:10101000EDE2D58FDFB7D068D0A3C48FD0E0C0E0B9
:10102000B38FB991B193CB31E1F7BF91AF91A08765
:10103000B187ADB7BEB7A683B783112489E991E024
:101040009EBF8DBFADE2B1E094968C9194978F7165
:1010500094968C939497E0919A01F0919B019396CA
:101060002D913C9194973383228391968D919C91FD
:101070009297918380838489811120C085898823F8
:1010800001F110922C0166896623D9F08481958143
:101090002817390799F0369641E00BC0819191915C
:1010A00051E0540F2817390719F440932C0106C05A
:1010B000452F461798F340932C0103C085E03ADA98
:1010C000C6DE8091C00088230CF4E898F1E0EDE2E0
:1010D000D0E0C0E0B191B993CC31E1F7D581DDBF6B
:1010E000D681DEBFD781DF93D085DF93C081D181E8
:1010F000E281F0914D01F7FF05C0FF77FFBFF0914E
:101100004C011895FFBFF0914C01F0934C01E09316
:101110004B01F1E0EDE2D58FDFB7F894D0A3C48F97
:10112000D0E0C0E0B38FB991B193CB31E1F7BF917B
:10113000AF91A087B187ADB7BEB7A683B78311249F
:1011400089E991E09EBF8DBFEDE2F1E084A18F714E
:1011500084A3A0919A01B0919B0183A194A11396BD
:101160009C938E93129781A192A18D939C9385E07D
:10117000E1D96DDEABCF80E090E0892B49F080E0D3
:1011800090E0892B39F00E940000811105C005C054
:1011900080E003C080E001C081E081110E94000076
:1011A0000895CF92DF92EF92FF920F931F93CF9308
:1011B000DF936C017B01C0E0D0E000E010E010C0E4
:1011C000F601EC0FFD1F62814AE050E0C701C3D079
:1011D000080F191F6EE2C70137D0080F191F21969B
:1011E000C330D1056CF3F60165814AE050E0C701D8
:1011F000B2D0800F911FDF91CF911F910F91FF907F
:10120000EF90DF90CF9008950F93FC018AE291E078
:101210009183808362834383248305830F910895A0
:101220000F93019751F46F3F7F4F39F400E020E0B6
:1012300040E060E085E092E0E7DF0F9108956FEF16
:101240007FEF81E090E0ECCFDC01ED91FC9101902B
:10125000F081E02D099508954F925F926F927F92F1
:101260009F92AF92BF92CF92DF92EF92FF920F9335
:101270001F93CF93DF93CDB7DEB7A1970FB6F89446
:10128000DEBF0FBECDBF5C016A017B01922E19A2A9
:1012900081E0821720F00F2EFAE09F2EF02D8E01B4
:1012A0000F5D1F4F492C512C612C712CC701B601C9
:1012B000A30192018AD28C2D929E80191124015093
:1012C00011098A3010F4805D01C0895CD8018C93CB
:1012D000C22ED32EE42EF52EC114D104E104F10464
:1012E00029F70115110591F0F80101900020E9F7A7
:1012F0003197AF01401B510BD501ED91FC9102805C
:10130000F381E02DB801C501099502C080E090E0AD
:10131000A1960FB6F894DEBF0FBECDBFDF91CF917F
:101320001F910F91FF90EF90DF90CF90BF90AF9003
:101330009F907F906F905F904F9008952115310599
:1013400049F4DC01ED91FC910190F081E02D642FD6
:101350000995089581CF9A01462F50E060E070E032
:10136000EDCF813039F018F0823051F008951092AD
:101370006E000895EFE6F0E080818D7F8083089510
:10138000E0E7F0E080818D7F808381E08093B00092
:10139000E1EBF0E08081887F846080831092B3006D
:1013A0000895CF93C82F20E030E08FEF4FEF10C0AB
:1013B000D901A050BF4F9C919C1308C0F901E9547A
:1013C000FF4F8491D901A050BF4F4C932F5F3F4FE7
:1013D000121613066CF7C5DF60E08C2FB1D1CF91E8
:1013E00008951F920F920FB60F9211242F933F93DF
:1013F0004F935F936F937F938F939F93AF93BF931D
:10140000EF93FF9380910E0290910F02A091100232
:10141000B0911102892B8A2B8B2B51F180910B02F9
:10142000E0910C02F0910D029081892780838091D8
:101430000E0290910F02A0911002B09111021816A5
:1014400019061A061B06BCF480910E0290910F0239
:10145000A0911002B09111020197A109B1098093E6
:101460000E0290930F02A0931002B093110203C0DA
:101470008091000196DFFF91EF91BF91AF919F9115
:101480008F917F916F915F914F913F912F910F902D
:101490000FBE0F901F90189508950895A9D0FDDFF5
:1014A0007FD1CBEBD8E080D12097E9F364DEFBCF8E
:1014B0001F920F920FB60F9211242F933F934F93C9
:1014C0005F936F937F938F939F93AF93BF9340915D
:1014D000130250911402609115027091160230911E
:1014E0001202DB01CA010196A11DB11D23E0230FE9
:1014F0002D3738F026E8230FDB01CA010296A11D23
:10150000B11D209312028093130290931402A093B2
:101510001502B09316028091170290911802A091C3
:101520001902B0911A020196A11DB11D80931702F4
:1015300090931802A0931902B0931A02BF91AF9131
:101540009F918F917F916F915F914F913F912F91DB
:101550000F900FBE0F901F9018953FB7F894809191
:10156000170290911802A0911902B0911A0226B5A3
:10157000A89B05C02F3F19F00196A11DB11D3FBFCB
:10158000BA2FA92F982F8827820F911DA11DB11D59
:10159000BC01CD01660F771F881F991F660F771F4B
:1015A000881F991F0895CF92DF92EF92FF92CF93F9
:1015B000DF936B017C01D1DFEB010EC06DDFCDDF6E
:1015C0006C1B7D0B683E734038F081E0C81AD1086F
:1015D000E108F108C851DC4FC114D104E104F10461
:1015E00069F7DF91CF91FF90EF90DF90CF90089552
:1015F000789484B5826084BD84B5816084BD85B5EE
:10160000826085BD85B5816085BDEEE6F0E08081B4
:1016100081608083E1E8F0E01082808182608083D5
:10162000808181608083E0E8F0E080818160808358
:10163000E1EBF0E0808184608083E0EBF0E080818A
:1016400081608083EAE7F0E080818460808380812C
:1016500082608083808181608083808180688083D4
:101660001092C1000895833069F028F48130B1F000
:101670008230C1F008958730C9F08830E9F08430B5
:1016800001F506C0E0E8F0E080818F77808308955F
:10169000E0E8F0E080818F7D8083089584B58F77C6
:1016A00084BD089584B58F7D84BD0895E0EBF0E09E
:1016B00080818F7780830895E0EBF0E080818F7DDB
:1016C00080830895CF93DF9390E0FC01E453FF4FB4
:1016D0002491FC01E052FF4F8491882371F190E046
:1016E000880F991FFC01E250FF4FA591B4918C50D7
:1016F0009F4FFC01C591D49161110BC08FB7F89435
:101700009C91209592239C93E8812E2328838FBF60
:1017100014C0623061F48FB7F8943C91922F909589
:1017200093239C93E8812E2B28838FBF06C08FB70D
:10173000F894EC912E2B2C938FBFDF91CF910895CD
:101740001F93CF93DF93C62F282F30E0F901E85481
:10175000FF4F8491F901E453FF4F1491F901E052D6
:10176000FF4FD491DD23C1F081117DDF2D2F30E0BB
:10177000F901EE0FFF1FEC50FF4FA591B4918FB709
:10178000F894C11105C0EC9110951E231C9303C061
:10179000EC911E2B1C938FBFDF91CF911F91089569
:1017A000C8DB61E08DE08ECFB0DC61E08DE0C8DFAA
:1017B00068EC70E080E090E0F6DE60E08DE0C0DF95
:1017C00064EF71E080E090E0EECEA1E21A2EAA1B59
:1017D000BB1BFD010DC0AA1FBB1FEE1FFF1FA217E1
:1017E000B307E407F50720F0A21BB30BE40BF50BDE
:1017F000661F771F881F991F1A9469F76095709567
:10180000809590959B01AC01BD01CF010895EE0F2D
:10181000FF1F0590F491E02D0994FB01DC0102C04B
:1018200005900D9241505040D8F70895FA01DC011F
:1018300004C08D910590801921F421503040C8F7E3
:10184000881B990B0895FB01DC0102C001900D92E9
:0C18500041505040D8F70895F894FFCFA5
:10185C00FF453035004F4B00533035005061636B02
:10186C00657453697A653D307835300051433031B9
:0C187C00006D31006C0000000000D1087D
:00000001FF
