:1000000084C000003FC70000A8C00000A6C00000D8
:10001000A4C00000A2C00000A0C000000C940C0905
:100020009CC000009AC0000098C0000096C000006C
:1000300094C0000092C0000090C000008EC000007C
:100040000C9473098AC00000C5C6000086C0000079
:1000500084C0000082C0000080C000007EC000009C
:100060007CC000007AC0000054585832303A5858CA
:100070003B32313A585858583B32323A585858580F
:10008000585858583B7468726561643A313B007146
:1000900073546872656164496E666F007166546876
:1000A00072656164496E666F0071430071537570CB
:1000B000706F7274656400020000000800020100A5
:1000C0000003040700000000000000000102040813
:1000D00010204080010204081020010204081020B2
:1000E00004040404040404040202020202020303DE
:1000F0000303030300000000250028002B0000007C
:100100000000240027002A00440811241FBECFEF5E
:10011000D8E0DEBFCDBF11E0A0E0B1E0E6E6F6E159
:1001200002C005900D92AC32B107D9F721E0ACE2E4
:10013000B1E001C01D92AE3CB207E1F711E0CAE0A8
:10014000D1E004C02297FE010E940E0BC830D107F7
:10015000C9F70E9469090C94310B52CF9FEB980F9D
:10016000963010F4875308959FE9980F963010F455
:100170008755089580538A3008F08FEF0895FF92D5
:100180000F931F93CF93DF938C01EB011882198299
:100190001A821B82F12CF801EF0DF11D8081DEDF48
:1001A0008F3FA9F0488159816A817B8194E0440F97
:1001B000551F661F771F9A95D1F7480F511D611D76
:1001C000711D488359836A837B83F394E4CF8F2D19
:1001D000DF91CF911F910F91FF9008958091C00002
:1001E00087FFFCCF8091C60008959091C00095FFD5
:1001F000FCCF8093C6000895CF92DF92FF920F93B9
:100200001F93CF93DF931F92CDB7DEB7F82E062F43
:1002100084E29983EADFCF2C9981D92E10E00F0D6B
:100220000C1541F0F6018081E0DFF60181916F014C
:10023000180FF6CF83E2D9DF812F82958F70282F98
:1002400030E02A30310514F0895A01C0805DCDDFDD
:100250001F70212F30E02A30310514F087E501C0EE
:1002600080E3810F0F90DF91CF911F910F91FF904D
:10027000DF90CF90BACFCF92DF92EF92FF920F93A1
:100280001F93182FE091B601F091B701C280D3807F
:10029000E12CF12CCC0CDD1CEE1CFF1C46E250E0E6
:1002A00068E670E0CF0147960E94120BE091B6011C
:1002B000F091B701DF01A859BF4F86E28C93912FCF
:1002C00092959F70292F30E02A30310514F0995A09
:1002D00001C0905D908F812F8F70282F30E02A30E1
:1002E000310514F0895A01C0805D818F20914D0144
:1002F000322F32953F70832F90E00A9714F0395ACD
:1003000001C0305D358F2F70822F90E00A9714F076
:10031000295A01C0205D268F808191819C0104E0D3
:10032000369527950A95E1F7A9014F7055272F704B
:100330004A30510510F0295A01C0205D23A3482FEF
:100340004F709C012F7033272A30310510F027E5BC
:1003500001C020E3240F24A39C01232F33272295DF
:100360002F702A30310518F02F70295A01C0205DF6
:1003700025A3892F99279C012F7033278F702A304E
:10038000310510F0895A01C0805D86A3B701A6012E
:10039000A4E07695679557954795AA95D1F78A0178
:1003A0009B010F701127222733274F700A30110548
:1003B0002105310510F087E501C080E3840F83A794
:1003C0008C2D8F70B701A6014F70552766277727B0
:1003D0004A3051056105710510F0895A01C0805DF0
:1003E00084A7B701A6013CE0769567955795479598
:1003F0003A95D1F78A019B010F70112722273327E5
:100400004F700A3011052105310510F087E501C054
:1004100080E3840F85A777276F2D5E2D4D2D8A01F0
:100420009B010F701127222733274F700A301105C7
:100430002105310510F087E501C080E3840F86A710
:1004400080E387A790E39E0D90AB81AB82AB66E221
:10045000CF0147961F910F91FF90EF90DF90CF90C3
:10046000CBCE0F931F93CF93DF93BC010091B601C6
:100470001091B701FC0101900020E9F73197E81BCA
:10048000F90BE801C859DF4FED3410F4E88302C0DE
:100490008CE48883095E1F4F488150E0C8010E94A8
:1004A000280B6881C801DF91CF911F910F91A4CED5
:1004B0002F923F924F925F926F927F928F929F9274
:1004C000AF92BF92CF92DF92EF92FF920F931F9362
:1004D000CF93DF93CDB7DEB768970FB6F894DEBF42
:1004E0000FBECDBFE091B601F091B701148A8CEA3E
:1004F00090E09C0140E050E029873A874B875C8779
:1005000089EA90E09C0140E050E02D873E874F87CC
:10051000588B8CE990E09C0140E050E0298B3A8BAD
:100520004B8B5C8B8FE890E09C0140E050E02D8B82
:100530003E8B4F8B588F52DE8432B1F030F48330D3
:1005400009F01FC482E097DEF6CF8B32A1F38D3223
:1005500009F017C48091B6019091B701FC01E859E8
:10056000FF4F608147960BC40091B6011091B7010F
:10057000480138E6830E911CF40110822FDEF12C25
:10058000F401833259F0908121E0290F2083F80192
:10059000E90FF11D878BF80E21DEF2CF8081F80183
:1005A000E80FF11D178A1ADED9DDE82EE294F0EF8C
:1005B000EF2214DED3DD8E29F81619F08DE215DE58
:1005C000BACF8BE212DE7801F7E1EF0EF11CF801F1
:1005D0008789843509F404C1C8F48734A1F160F433
:1005E000833409F4CEC3843409F416C38F3309F07D
:1005F000C8C381E091E0F6C08D3409F4C1C28335EF
:1006000009F4BFC3883409F4EBC0BBC38B3609F4CB
:1006100003C350F4833609F4B7C3873609F4E4C042
:100620008A3509F0AEC300C3813709F473C320F4DF
:100630008D3609F4EBC1A5C3833709F4F1C28A37BB
:1006400009F4F2C29EC37801F8E1EF0EF11C6801D3
:1006500028E5C20ED11CF701808180DDB82EF7019C
:1006600081817CDD9B2D9295907F982B90932D011D
:10067000F2E0EF0EF11CEC14FD0469F7F701808144
:100680006DDDF82EF294F0EFFF22F801E75AFF4FEC
:10069000808164DD8F2980934D01F801E65AFF4F78
:1006A00080815CDDF0E18F9F60011124F801D1822F
:1006B000C082E55AFF4F808151DDC82AF801D182FE
:1006C000C082E45AFF4F808149DDE82EF12CFE2CD8
:1006D000EE24F294A0EFFA22EC28FD28F801F18232
:1006E000E082E35AFF4F808139DDF82AF801F18278
:1006F000E082E25AFF4F808131DDF0E18F9FC0013F
:1007000011246C01EE24D7FCE094FE2CF801E15A90
:10071000FF4F808123DD982EF801E05AFF4F808142
:100720001DDDA82EF801EF59FF4F808117DDB82E8F
:10073000F801EE59FF4F808111DD782EF801ED5957
:10074000FF4F80810BDD882EF801EC59FF4F80812F
:1007500005DD482EF801EB59FF4F8081FFDC472D66
:1007600050E060E070E0B4E1440F551F661F771F52
:10077000BA95D1F768294929512C612C712C9CE13B
:10078000440C551C661C771C9A95D1F744295529B1
:1007900066297729782B4C295D296E297F298A2D96
:1007A00090E0982F88279295907FAA2797FDA09593
:1007B000BA2F482B592B6A2B7B2B8B2D90E0982F2F
:1007C0008827AA2797FDA095BA2F482B592B6A2B6B
:1007D0007B2B7695679557954795F8015383428310
:1007E00085E091E03EDEA7CEF80182819381A0E012
:1007F000B0E0880F991FAA1FBB1F4DE251E020E017
:1008000030E0FA01D190AF01ED2DE295EF706E2F3F
:1008100070E06A30710514F067E501C060E36E0FA7
:10082000F801E20FF31F678B6D2D6F70D62E70E00D
:100830006A30710514F067E501C060E36D0D608FEB
:100840002E5F3F4F20343105E1F640914D01542F8A
:1008500052955F70252F30E02A30310514F0595A37
:1008600001C0505DF801E95AFF4F50834F70242FAB
:1008700030E02A30310514F0495A01C0405DF801DA
:10088000E85AFF4F4083F80120813181A90174E0CB
:10089000569547957A95E1F7BA016F7077274F70B3
:1008A0006A30710510F0495A01C0405DF801E75AFD
:1008B000FF4F4083622F6F70A9014F7055274A3058
:1008C000510510F047E501C040E3460FF801E65A34
:1008D000FF4F4083A901452F552742954F704A305D
:1008E000510518F04F70495A01C0405DF801E55AB2
:1008F000FF4F4083232F3327A9014F7055272F70B7
:100900004A30510510F0295A01C0205DF801E45A1F
:10091000FF4F2083AC01BD0134E076956795579574
:1009200047953A95D1F72A013B01FFE04F22552424
:10093000662477244F702AE0421651046104710442
:1009400010F027E501C020E3240FF801E35AFF4F20
:100950002083282F2F70AC01BD014F7055276627CB
:1009600077274A3051056105710510F0295A01C0F9
:10097000205DF801E25AFF4F2083AC01BD012CE05D
:1009800076956795579547952A95D1F72A013B01AA
:100990003FE043225524662477244F705AE04516E1
:1009A00051046104710410F027E501C020E3240F15
:1009B000F801E15AFF4F2083492F5A2F6B2F7727D9
:1009C0002A013B01EFE04E225524662477244F7024
:1009D000FAE04F1651046104710410F027E501C0DC
:1009E00020E3240FF801E05AFF4F2083319620E3E3
:1009F0002083319680E38A0F80833196208331965D
:100A000020838EE4F40180836EE4B8C0BE016B5F86
:100A10007F4F6801F8E1CF0ED11CC601B0DB960113
:100A2000280F311DC901BE016F5F7F4F0196A7DB03
:100A30004D815E816F817885DB01CA018827992706
:100A4000BB27009730E8A307B10509F053C066271C
:100A50004D835E836F8378875A0189819A81AB8148
:100A6000BC81D12C4D2C512C612C712C481659066F
:100A70006A067B0608F07EC02D2D30E0F501E20FFE
:100A8000F31F7080D11012C082309105A105B1050D
:100A900069F4F80120803180412C512C4215530516
:100AA0006405750518F0F72DFF717F2E220F331F97
:100AB000E72DE295EF70EA3018F0F7E5CF2E02C08F
:100AC000F0E3CF2ECE0EF801E20FF31FC78A2F5F9F
:100AD0003F4FE72DEF707E2EF0E03A971CF0F7E5E0
:100AE0007F0E02C0E0E37E0EF801E20FF31F778A6B
:100AF000D394B8CF892B8A2B8B2B09F08AC0662719
:100B00004D835E836F83788749805A806B807C80B9
:100B1000A0E0AA2EB12CC12CD12CA414B504C6047B
:100B2000D70440F5A40EB51EC61ED71EF50134919C
:100B30008A2F90E0880F991F232F22952F702A303B
:100B400010F0295A01C0205DF801E80FF91F278B2A
:100B50000196E32FEF702E2F30E02A30310514F08C
:100B600027E501C020E32E0F800F911FFC01278B8A
:100B7000AF5FCFCF6981660FF4016083C701FFC00B
:100B8000085E1F4FBE016B5F7F4FC801F8DA080F88
:100B9000111DBE016F5F7F4FC8010196F0DACD8055
:100BA000DE80EF80F884B701A60144275527772718
:100BB000411551056048710561F5EE24CD82DE8254
:100BC000EF82F886080F111DB12C0E5F1F4F4B2DC1
:100BD00050E060E070E089819A81AB81BC81481768
:100BE00059076A077B0708F0FBCD7601EB0CF11C77
:100BF000F8018081B3DAA82EA29460EFA622F70153
:100C0000A082F8018181AADA8A29F7018083B3944E
:100C1000DCCF88E091E0E6CD85E091E022DCB4C055
:100C200081E0F801848BB0C0BE016B5F7F4FC801CB
:100C30004A96A5DA90E00496BE016F5F7F4F8E0D55
:100C40009F1D9DDAF801808D803309F09AC0878955
:100C5000CD80DE80EF80F8846689F694E794D7949F
:100C6000C7948A35F9F4C6013496262F222341F021
:100C7000419151914817590709F4B2CD2150F6CF4F
:100C8000683008F0ADCD81E0860FF801868BE60F65
:100C9000F11DE60FF11D3496D182C08281E0F8018A
:100CA000858B9ECD960170E0F12C761740F58F2D47
:100CB00090E0DC01AA0FBB1FA00FB11F14964D914D
:100CC0005C9115974217530761F47F5F761748F0E0
:100CD000FC013296EE0FFF1FE00FF11F1182108210
:100CE0000EC0F801E70FF11DE70FF11D848195811A
:100CF00015969C938E931497F3947F5FD6CFF71637
:100D000018F46150F801668BF8018689811168CD6D
:100D1000158A66CD2AE030E049855A856B857C8549
:100D2000C70189D4892B21F46FE08CE091E027C0C2
:100D300022E030E04D855E856F857889C7017BD4E0
:100D4000892B19F48CE191E04DCD2CE030E04989FC
:100D50005A896B897C89C7016ED4892B19F481E289
:100D600091E040CD2CE030E04D895E896F89788D2F
:100D7000C70161D4892B29F484E291E033CD3CDAB8
:100D8000DACB8BE191E02ECDF8018489811104C08A
:100D9000F8018589882321F0529AE89AE09A01C0E7
:100DA000E89868960FB6F894DEBF0FBECDBFDF910E
:100DB000CF911F910F91FF90EF90DF90CF90BF9058
:100DC000AF909F908F907F906F905F904F903F90EB
:100DD0002F900895F0934C01E0934B01F1E0EDE288
:100DE000D58FDFB7D068D0A3C48FD0E0C0E0B38F79
:100DF000B991B193CB31E1F7BF91AF91B73083ECAB
:100E0000A80711F4BF91AF91A087B187ADB7BEB766
:100E1000A683B783112485EB91E09EBF8DBFEDE2E1
:100E2000F1E084A18F7184A3A091B601B091B701C4
:100E300083A194A113969C938E93129781A192A162
:100E40008D939C9335DBF1E0EDE2D0E0C0E0B19111
:100E5000B993CC31E1F7D581DDBFD681DEBFD78133
:100E6000DF93D085DF93C081D181E281F0914D0184
:100E7000F7FF05C0FF77FFBFF0914C011895FFBF4A
:100E8000F0914C01F0934C01E0934B01F1E0EDE265
:100E9000D58FDFB7D068D0A3C48FD0E0C0E0B38FC8
:100EA000B991B193CB31E1F7BF91AF91B73083ECFA
:100EB000A80711F4BF91AF91A087B187ADB7BEB7B6
:100EC000A683B783112485EB91E09EBF8DBF8091EF
:100ED00051018F7180935101E091B601F091B701FA
:100EE00080915001909151019383828320914E0112
:100EF00030914F0131832083248921111EC025891F
:100F00002223F1F010922C01568940E00FC061E0DD
:100F1000640FDF01A40FB11DA40FB11D14962D9114
:100F20003C9115972817390731F0462F451778F36C
:100F300040932C0105C040932C0185E09CD9B8DA80
:100F40008091C00087FDE898F1E0EDE2D0E0C0E0DC
:100F5000B191B993CC31E1F7D581DDBFD681DEBF48
:100F6000D781DF93D085DF93C081D181E281F09179
:100F70004D01F7FF05C0FF77FFBFF0914C011895B9
:100F8000FFBFF0914C01F0934C01E0934B01F1E075
:100F9000EDE2D58FDFB7F894D0A3C48FD0E0C0E0E6
:100FA000B38FB991B193CB31E1F7BF91AF91B73026
:100FB00083ECA80711F4BF91AF91A087B187ADB7BB
:100FC000BEB7A683B783112485EB91E09EBF8DBF8A
:100FD000EDE2F1E084A18F7184A3A091B601B091FC
:100FE000B70183A194A113969C938E93129781A12C
:100FF00092A18D939C9385E03ED95ADAA5CF80E0EB
:1010000090E0892B49F080E090E0892B29F00E9444
:10101000000081110C9400000895AF92BF92CF920E
:10102000DF92EF92FF920F931F93CF93DF936C01A8
:101030007B01C0E0D0E000E010E0F601EC0FFD1F06
:101040004AE050E06281C701AED05C016EE2C701A8
:1010500040D08A0D9B1D080F191F2196C330D10562
:1010600061F74AE050E0F6016581C7019CD0800F2E
:10107000911FDF91CF911F910F91FF90EF90DF9023
:10108000CF90BF90AF9008958AE291E09093B9011C
:101090008093B8011092BA011092BB011092BC016A
:1010A0001092BD0108956115710581F0DB010D906D
:1010B0000020E9F7AD0141505109461B570BDC01F7
:1010C000ED91FC910280F381E02D099480E090E0A5
:1010D0000895DC01ED91FC910190F081E02D0994DF
:1010E0008F929F92AF92BF92CF92DF92EF92FF9238
:1010F0000F931F93CF93DF93CDB7DEB7A1970FB6B2
:10110000F894DEBF0FBECDBF7C01C42EE52FCB010E
:10111000D22E19A221E02D1510F02AE0D22E8E0138
:101120000F5D1F4F8D2C912CA12CB12C6C2D7E2F7F
:10113000A50194014FD28C2DD29E8019112401500B
:1011400011098A3010F4805D01C0895CF801808348
:10115000211531054105510521F0C22EE32FCA01A9
:10116000E5CFB801C7019FDFA1960FB6F894DEBFA7
:101170000FBECDBFDF91CF911F910F91FF90EF90E8
:10118000DF90CF90BF90AF909F908F9008952115E2
:10119000310541F4DC01ED91FC910190F081E02DED
:1011A000642F09949DCF9A01462F50E060E070E0D3
:1011B000EECF813039F018F0823051F0089510925E
:1011C0006E00089580916F008D7F80936F00089569
:1011D000809170008D7F8093700081E08093B000DB
:1011E0008091B100887F84608093B1001092B30039
:1011F0000895CF93C82F809100018C1307C0E7EBAF
:10120000F0E084919FEF9093000101C08FEFD1DF58
:1012100060E08C2FCF9196C11F920F920FB60F9264
:1012200011242F933F934F935F936F937F938F93EB
:101230009F93AF93BF93EF93FF938091C1019091E0
:10124000C201A091C301B091C401892B8A2B8B2BC1
:1012500051F19091BE01E091BF01F091C0018081F8
:10126000892780838091C1019091C201A091C3011F
:10127000B091C401181619061A061B06BCF4809119
:10128000C1019091C201A091C301B091C401019725
:10129000A109B1098093C1019093C201A093C30138
:1012A000B093C40103C080910001A3DFFF91EF91CF
:1012B000BF91AF919F918F917F916F915F914F916E
:1012C0003F912F910F900FBE0F901F90189508958A
:1012D00008959BD0FDDF6BD1CFEFD7E06BD1209786
:1012E000E9F38DDEFBCF1F920F920FB60F92112400
:1012F0002F933F938F939F93AF93BF938091C6019A
:101300009091C701A091C801B091C9013091C50168
:1013100023E0230F2D3720F40196A11DB11D05C038
:1013200026E8230F0296A11DB11D2093C5018093CD
:10133000C6019093C701A093C801B093C9018091E1
:10134000CA019091CB01A091CC01B091CD01019641
:10135000A11DB11D8093CA019093CB01A093CC0134
:10136000B093CD01BF91AF919F918F913F912F91FC
:101370000F900FBE0F901F9018953FB7F894809173
:10138000CA019091CB01A091CC01B091CD0126B5BD
:10139000A89B05C02F3F19F00196A11DB11D3FBFAD
:1013A0006627782F892F9A2F620F711D811D911D3D
:1013B00042E0660F771F881F991F4A95D1F708955D
:1013C000CF92DF92EF92FF92CF93DF936B017C017C
:1013D000D4DFEB01C114D104E104F10479F077DF2B
:1013E000CCDF6C1B7D0B683E7340A0F381E0C81A14
:1013F000D108E108F108C851DC4FECCFDF91CF9163
:10140000FF90EF90DF90CF900895789484B582603C
:1014100084BD84B5816084BD85B5826085BD85B598
:10142000816085BDEEE6F0E0808181608083E1E847
:10143000F0E010828081826080838081816080837F
:10144000E0E8F0E0808181608083E1EBF0E0808182
:1014500084608083E0EBF0E0808181608083EAE754
:10146000F0E08081846080838081826080838081DD
:10147000816080838081806880831092C10008959C
:10148000833081F028F4813099F08230A1F0089502
:101490008730A9F08830B9F08430D1F48091800091
:1014A0008F7D03C0809180008F77809380000895A6
:1014B00084B58F7702C084B58F7D84BD08958091F7
:1014C000B0008F7703C08091B0008F7D8093B00013
:1014D0000895CF93DF9390E0FC01E453FF4F2491F4
:1014E000FC01E052FF4F8491882349F190E0880F7E
:1014F000991FFC01E250FF4FA591B4918C509F4F72
:10150000FC01C591D4919FB7611108C0F8948C91EA
:10151000209582238C93888182230AC0623051F403
:10152000F8948C91322F309583238C938881822B71
:10153000888304C0F8948C91822B8C939FBFDF9199
:10154000CF9108950F931F93CF93DF931F92CDB741
:10155000DEB7282F30E0F901E854FF4F8491F901FC
:10156000E453FF4F1491F901E052FF4F049100231F
:10157000C1F0882319F0698383DF6981E02FF0E0EF
:10158000EE0FFF1FEC50FF4FA591B4919FB7F89459
:101590008C91611103C01095812301C0812B8C9324
:1015A0009FBF0F90DF91CF911F910F91089561E040
:1015B0008DE08FCF61E08DE0C5DF68EC70E080E00A
:1015C00090E0FEDE60E08DE0BDDF68EE73E080E07D
:1015D00090E0F6CEA1E21A2EAA1BBB1BFD010DC0A6
:1015E000AA1FBB1FEE1FFF1FA217B307E407F507D3
:1015F00020F0A21BB30BE40BF50B661F771F881FAF
:10160000991F1A9469F760957095809590959B0144
:10161000AC01BD01CF010895EE0FFF1F0590F491BD
:10162000E02D0994FB01DC0102C005900D924150B0
:101630005040D8F70895FA01DC0104C08D9105905F
:10164000801921F421503040C8F7881B990B089568
:10165000FB01DC0102C001900D9241505040D8F7CF
:061660000895F894FFCF8D
:10166600FF533035004F4B00453035005061636BFA
:10167600657453697A653D307835300051433031B1
:0C168600006D31006C00000000000D0839
:00000001FF
