:100000000C945C000C942D070C9479000C947900EE
:100010000C9479000C9479000C9479000C9479007C
:100020000C9479000C9479000C9479000C9479006C
:100030000C9479000C9479000C9479000C9479005C
:100040000C9479000C9479000C94CE060C947900F1
:100050000C9479000C9479000C9479000C9479003C
:100060000C9479000C94790071537570706F7274F0
:100070006564007143007166546872656164496E1D
:10008000666F007173546872656164496E666F00D3
:1000900054585832303A58583B32313A58585858D8
:1000A0003B32323A58585858585858583B7468722E
:1000B0006561643A313B000011241FBECFEFD8E0E8
:1000C000DEBFCDBF11E0A0E0B1E0EEE2F6E102C09C
:1000D00005900D92A832B107D9F722E0A8E2B1E06D
:1000E00001C01D92A330B207E1F70E94970A0C9459
:1000F000150B0C940000CF93DF93CDB7DEB788E2E9
:1001000091E090939201809391018091910190915F
:100110009201FC01118210828091910190919201D3
:10012000FC01168A809191019091920188599F4F0C
:10013000FC0110828091910190919201049640E11E
:1001400050E060E070E00E940E0B80919101909170
:100150009201FC01148A8091910190919201FC011D
:10016000158A0E94B600DF91CF910895CF93DF9357
:10017000CDB7DEB780EC90E022E0FC01208381EC7B
:1001800090E028E1FC01208382EC90E026E0FC0175
:10019000208385EC90E0FC01108284EC90E020E16B
:1001A000FC01208381EC90E021EC30E0F90120811A
:1001B0002068FC012083DF91CF910895CF93DF93D6
:1001C000CDB7DEB7000080EC90E0FC018081882391
:1001D000D4F786EC90E0FC018081DF91CF91089507
:1001E000CF93DF931F92CDB7DEB78983000080ECF9
:1001F00090E0FC018081882F90E080729927009721
:10020000B1F386EC90E02981FC0120830F90DF910F
:10021000CF9108951F93DF93E0919101F0919201A6
:10022000148A0E94DE008432C9F038F4833009F069
:100230006DC082E00E943B09F4CF8B3291F38D3286
:1002400009F064C08091910190919201FC01E859FC
:10025000FF4F608147960E94C908E3CFE09191016A
:10026000F0919201E859FF4F10820E94DE00D0E029
:100270002091910130919201F901E859FF4F8332A9
:1002800061F0908141E0490F4083F901E90FF11DD0
:10029000878BD80F0E94DE00EBCF8081F901E80F39
:1002A000F11D178A0E94DE000E94330A182F129552
:1002B000107F0E94DE000E94330A812BD81721F0A4
:1002C0008DE20E94F000ADCF8BE20E94F0008091A1
:1002D00091019091920147960E948E018111A1CFC8
:1002E000E0919101F09192018489811103C0858987
:1002F000882351F0809169008C7F80936900529A25
:10030000E09AE89A5A9807C0E89805C08DE191E014
:100310000E940D0986CFDF911F9108950F931F93BF
:10032000FC012081243569F198F4273481F148F4E7
:100330002334D1F1243499F12F33B1F582E191E0E6
:1003400035C02D3441F1233579F12834D1F02CC05A
:100350002B3629F140F4233609F486C02736A1F064
:100360002A3511F52EC02137A1F130F42D36E1F4F4
:1003700001960E9455051CC02337E1F02A3709F188
:1003800013C086E191E012C00E94340311C00196AF
:100390000E9454040DC001960E94580609C086E1CF
:1003A00091E00E940D0960C08DE191E00E940D096D
:1003B00081E05BC0E0919101F091920181E0848B3A
:1003C00053C0809191019091920147960E9438020A
:1003D000EFCF2AE030E048E650E060E070E00E94B5
:1003E000F80A892B81F48091000190910101FC01B0
:1003F00001900020E9F7BF0161507109681B790B7A
:100400000E94C908D5CF0091910110919201095E17
:100410001F4F22E030E043E750E060E070E0C801A9
:100420000E94F80A892B19F489E191E0BFCF2CE0F2
:1004300030E046E750E060E070E0C8010E94F80A52
:10044000892B19F48EE191E0B1CF2CE030E043E844
:1004500050E060E070E0C8010E94F80A892B09F0C2
:10046000A3CF81E291E0A2CF80E01F910F91089588
:100470000F931F93CF93DF93CDB7DEB728970FB6B7
:10048000F894DEBF0FBECDBF8C01BE016B5F7F4F06
:1004900003960E94440A90E00496BE016F5F7F4F6E
:1004A000800F911F0E94440AF80181818033D9F4A2
:1004B00080814D815E816F8178858A3549F4DB01C9
:1004C000CA01B695A795979587950E94820208C0A4
:1004D000DB01CA01B695A795979587950E94A8025A
:1004E00086E191E002C08DE191E00E940D0928961D
:1004F0000FB6F894DEBF0FBECDBFDF91CF911F9135
:100500000F910895E0919101F09192014689DF01E8
:100510001496542F552339F02D913D912817390702
:1005200099F05150F7CF483088F421E0240F268B02
:10053000DF01A40FB11DA40FB11D15969C938E93DE
:10054000149781E0858B089581E0089580E00895F7
:10055000CF93DF9300D000D0CDB7DEB79C838B83E1
:1005600019821A8255C0209191013091920189819E
:10057000882F90E00296880F991F820F931FFC012D
:10058000208131818B819C8128173907E1F48A8190
:100590008F5F8A838091910190919201FC019689ED
:1005A0008A81891780F0209191013091920189818F
:1005B000882F90E00296880F991F820F931FFC01ED
:1005C000118210822FC04091910150919201898136
:1005D000882F90E060919101709192012A81222FE1
:1005E00030E02E5F3F4F220F331F260F371FF901D8
:1005F000208131810296880F991F840F951FFC017D
:100600003183208389818F5F89838A818F5F8A8389
:100610008091910190919201FC0196898A818917BC
:1006200008F4A1CF9A818981891748F480919101BA
:1006300090919201FC0126892150FC01268B80912A
:10064000910190919201FC018689882331F4809177
:10065000910190919201FC01158A0F900F900F90DB
:100660000F90DF91CF910895CF92DF92EF92FF929A
:100670000F931F93DF93E0919101F09192014281DA
:10068000538160E070E0440F551F661F771F2BED0C
:1006900031E080E090E0D901DD919D011D2F1295A0
:1006A0001F70A12FB0E01A9714F0195A01C0105D05
:1006B000DF01A80FB91F57961C935797DF700D2FB6
:1006C00010E00A30110514F0D95A01C0D05D5896D7
:1006D000DC93029680349105F1F62091FB01322FD4
:1006E00032953F70832F90E00A9714F0395A01C079
:1006F000305DDF01A95ABF4F3C932F70822F90E0ED
:100700000A9714F0295A01C0205DDF01A85ABF4F93
:100710002C93808191819C01A4E036952795AA9520
:10072000E1F7D901AF70BB272F701A9710F0295A43
:1007300001C0205DDF01A75ABF4F2C93A82FAF70D7
:100740009C012F7033272A30310510F027E501C0B6
:1007500020E32A0FDF01A65ABF4F2C939C01232FC1
:10076000332722952F702A30310518F02F70295A1F
:1007700001C0205DDF01A55ABF4F2C93892F992717
:100780009C012F7033278F702A30310510F0895A61
:1007900001C0805DDF01A45ABF4F8C938A019B0189
:1007A000D4E03695279517950795DA95D1F7680126
:1007B0007901BFE0CB22DD24EE24FF240F708AE014
:1007C000C816D104E104F10410F087E501C080E30C
:1007D000800FDF01A35ABF4F8C93842F8F708A0143
:1007E0009B010F701127222733270A30110521059D
:1007F000310510F0895A01C0805DDF01A25ABF4F58
:100800008C938A019B01BCE0369527951795079537
:10081000BA95D1F768017901AFE0CA22DD24EE2450
:10082000FF240F70BAE0CB16D104E104F10410F0FC
:1008300087E501C080E3800FDF01A15ABF4F8C9391
:10084000052F162F272F3327680179018FE0C82243
:10085000DD24EE24FF240F70AAE0CA16D104E104BF
:10086000F10410F087E501C080E3800FDF01A05A9A
:10087000BF4F8C93119680E38C93119690E3960F63
:100880009C9311968C9311968C9314968EE48C9372
:100890006EE4CF014796DF911F910F91FF90EF908B
:1008A000DF90CF900C94C9085F926F927F928F92E5
:1008B0009F92AF92BF92CF92DF92EF92FF920F93EF
:1008C0001F93DF937C018C016C0120E4C20ED11CCC
:1008D000F80180810E94330AD82FF80181810E949B
:1008E000330A9D2F9295907F982B9093DB010E5F9A
:1008F0001F4F0C151D0561F7F80180810E94330A16
:10090000D82FD295D07FF701EF5BFF4F80810E94F7
:10091000330A8D2B8093FB0100919101109192017C
:10092000F701EE5BFF4F80810E94330AF0E18F9F59
:1009300050011124F801B182A082F701ED5BFF4F55
:1009400080810E94330AA82AF801B182A082F701AF
:10095000EC5BFF4F80810E94330AC82ED12CDC2C27
:10096000CC24D294D0EFDD22CA28DB28F801D18232
:10097000C082F701EB5BFF4F80810E94330AD82AC7
:10098000F801D182C082F701EA5BFF4F80810E94AB
:10099000330AF0E18F9FC00111244C01AA2497FC77
:1009A000A094BA2CF701E95BFF4F80810E94330AC3
:1009B000D82EF701E85BFF4F80810E94330A782E22
:1009C000F701E75BFF4F80810E94330AD82FF701C0
:1009D000E65BFF4F80810E94330A582EF701E55BEA
:1009E000FF4F80810E94330A682EF701E45BFF4FBE
:1009F00080810E94330AC82EF701E35BFF4F80819C
:100A00000E94330A452D50E060E070E094E1440F0D
:100A1000551F661F771F9A95D1F766294D29D12C4E
:100A2000E12CF12C2CE1CC0CDD1CEE1CFF1C2A95DA
:100A3000D1F74C295D296E297F29782B482959291E
:100A40006A297B29872D90E0982F88279295907F9F
:100A5000AA2797FDA095BA2F482B592B6A2B7B2BE1
:100A60008D2F90E0982F8827AA2797FDA095BA2F61
:100A7000482B592B6A2B7B2B769567955795479575
:100A8000F8015383428386E191E0DF911F910F913A
:100A9000FF90EF90DF90CF90BF90AF909F908F909E
:100AA0007F906F905F900C940D096F927F928F9260
:100AB0009F92AF92BF92CF92DF92EF92FF920F93ED
:100AC0001F93CF93DF93CDB7DEB728970FB6F89477
:100AD000DEBF0FBECDBF8C01BE016B5F7F4F0E949A
:100AE000440A9801280F311DC901BE016F5F7F4F75
:100AF00001960E94440A8D819E81AF81B885AC0128
:100B0000BD014427552777274115510530E8630774
:100B1000710509F05FC0AA278D839E83AF83B887D4
:100B20008C0149815A816B817C8160909101709028
:100B30009201D12C8D2C912CA12CB12C84169506D0
:100B4000A606B70608F092C02D2D30E07801E20E1F
:100B5000F31EF701C080D11013C04230510561056A
:100B6000710571F4F301E080F1804701A12CB12CF3
:100B700088159905AA05BB0518F0FC2DFF71CF2E2D
:100B8000220F331FFC2CF294FFE0FF22E9E0EF1567
:100B900018F4F7E5BF2E02C0E0E3BE2EBF0C7301D0
:100BA000E20EF31EF701B78A2F5F3F4FFC2DFF7057
:100BB000CF2EEF2EF12CEAE0EE16F1041CF0F7E553
:100BC000CF0E02C0E0E3CE0E260D371DF901C78A15
:100BD000D394B0CF452B462B472B09F042C0AA2710
:100BE0008D839E83AF83B887F12C0F2D10E020E01A
:100BF00030E089819A81AB81BC81081719072A07E7
:100C00003B07A0F56D817E818F819885600F711FF4
:100C1000821F931F0E94760A409191015091920188
:100C20002F2D30E0220F331F982F92959F709A300E
:100C300010F0995A01C0905DFA01E20FF31F978BF3
:100C40002F5F3F4F8F70682F70E06A30710514F08E
:100C5000895A01C0805DFA01E20FF31F878BF3947C
:100C6000C4CF83E291E00E940D090DC080919101F3
:100C7000909192016981660FFC01E859FF4F6083F2
:100C800047960E94C90828960FB6F894DEBF0FBE9B
:100C9000CDBFDF91CF911F910F91FF90EF90DF902B
:100CA000CF90BF90AF909F908F907F906F9008955E
:100CB000AF92BF92CF92DF92EF92FF920F931F936A
:100CC000CF93DF93CDB7DEB728970FB6F894DEBF8A
:100CD0000FBECDBF7C01BE016B5F7F4F0E94440AF7
:100CE000E80EF11CBE016F5F7F4FC70101960E94A5
:100CF000440A4D815E816F8178858A019B010027BE
:100D000011273327011511052048310579F566278C
:100D10004D835E836F8378875A01E80EF11CD12CD6
:100D2000F2E0EF0EF11C8D2D90E0A0E0B0E0098123
:100D30001A812B813C8180179107A207B307C8F461
:100D400085010D0D111DF70180810E94330AC82E07
:100D5000C294A0EFCA22F801C082F70181810E94EB
:100D6000330A8C29F8018083D394DACF83E291E0AF
:100D700002C086E191E00E940D0928960FB6F89412
:100D8000DEBF0FBECDBFDF91CF911F910F91FF90BE
:100D9000EF90DF90CF90BF90AF900895F093FA015D
:100DA000E093F901F1E0EBEDD58FDFB7D068D0A388
:100DB000C48FD0E0C0E0B38FB991B193CB31E1F7EC
:100DC000BF91AF91A087B187ADB7BEB7A683B783F8
:100DD00011248AED91E09EBF8DBF8FEF91E02FEF40
:100DE00031E0F90120812F71FC0120838091910174
:100DF000909192012091FE013091FF01FC0133831B
:100E0000228380919101909192012091FC01309177
:100E1000FD01FC01318320830E940A01F1E0EBED2A
:100E2000D0E0C0E0B191B993CC31E1F7D581DDBF1D
:100E3000D681DEBFD781DF93D085DF93C081D1819A
:100E4000E281F091FB01F7FF05C0FF77FFBFF09152
:100E5000FA011895FFBFF091FA01F093FA01E093BF
:100E6000F901F1E0EBEDD58FDFB7D068D0A3C48FE7
:100E7000D0E0C0E0B38FB991B193CB31E1F7BF912E
:100E8000AF91A087B187ADB7BEB7A683B783112452
:100E90008AED91E09EBF8DBF8FEF91E02FEF31E0A3
:100EA000F90120812F71FC012083809191019091A3
:100EB00092012091FE013091FF01FC0133832283D6
:100EC00080919101909192012091FC013091FD015E
:100ED000FC01318320838091910190919201FC016A
:100EE0008489882309F036C0809191019091920104
:100EF000FC018589882369F11092000220C02091AD
:100F000091013091920180910002882F90E0029629
:100F1000880F991F820F931FFC01208131818091DE
:100F2000910190919201FC018281938128173907E8
:100F300009F410C0809100028F5F809300028091BD
:100F4000910190919201FC0196898091000289178C
:100F5000B0F205C085E00E943B090E940A0180ECC6
:100F600090E0FC01808188234CF48DE390E02DE338
:100F700030E0F90120812E7FFC012083F1E0EBEDD0
:100F8000D0E0C0E0B191B993CC31E1F7D581DDBFBC
:100F9000D681DEBFD781DF93D085DF93C081D18139
:100FA000E281F091FB01F7FF05C0FF77FFBFF091F1
:100FB000FA011895FFBFF091FA01F093FA01E0935E
:100FC000F901F1E0EBEDD58FDFB7F894D0A3C48F32
:100FD000D0E0C0E0B38FB991B193CB31E1F7BF91CD
:100FE000AF91A087B187ADB7BEB7A683B7831124F1
:100FF0008AED91E09EBF8DBF8FEF91E02FEF31E042
:10100000F90120812F71FC01208380919101909141
:1010100092012091FE013091FF01FC013383228374
:1010200080919101909192012091FC013091FD01FC
:10103000FC013183208385E00E943B090E940A0164
:101040000C94BE07CF93DF9300D000D01F92CDB792
:10105000DEB79D838C8319828FE590E0FC0180814F
:101060008A83F8942091910130919201898191E0D5
:10107000980F9983882F90E0820F931F47962FE453
:10108000FC0120834AC08C819D819C012F5F3F4FD2
:101090003D832C83FC0180818B83209191013091D1
:1010A0009201898191E0980F9983882F90E04B817C
:1010B00042954F70442F50E04F7055274A305105EC
:1010C0002CF04B8142954F70495A04C04B81429598
:1010D0004F70405D820F931F4796FC014083209123
:1010E000910130919201898191E0980F9983882F25
:1010F00090E04B81442F50E04F7055274A30510506
:1011000024F04B814F70495A03C04B814F70405DB2
:10111000820F931F4796FC0140838C819D81FC01C7
:101120008081882309F0AFCF209191013091920105
:10113000898191E0980F9983882F90E0820F931F07
:10114000479620E3FC012083209191013091920188
:10115000898191E0980F9983882F90E0820F931FE7
:10116000479621E6FC0120838091910190919201A4
:10117000479669810E94C9088FE590E02A81FC01A9
:1011800020830F900F900F900F900F90DF91CF91D1
:101190000895DF92EF92FF920F931F93CF93DF9307
:1011A0001F92CDB7DEB7E82EF62E84E299830E9417
:1011B000F0000E2D9981192FD12CFE0CF01649F05C
:1011C000F80180810E94F000F80181918F01D80E12
:1011D000F5CF83E20E94F0008D2D82958F70282F2D
:1011E00030E02A30310514F0895A01C0805D0E9438
:1011F000F0008D2D8F70282F30E02A30310514F04B
:10120000895A01C0805D0F90DF91CF911F910F919E
:10121000FF90EF90DF900C94F000EF92FF920F930D
:101220001F93BC018091910190919201FB0101906B
:101230000020E9F73197E61BF70B8C0108591F4F87
:10124000ED3418F4D801EC9303C02CE4F8012083AA
:101250007C01F7E1EF0EF11CD8014C9150E0C70181
:101260000E94050BF8016081C7011F910F91FF904B
:10127000EF900C94C908CF92DF92EF92FF920F93F8
:101280001F93182FE0919101F0919201C280D380B9
:10129000E12CF12CCC0CDD1CEE1CFF1C46E250E0D6
:1012A00060E970E0CF0147960E94EF0AE09191015A
:1012B000F0919201DF01A859BF4F86E28C93912FE4
:1012C00092959F70292F30E02A30310514F0995AF9
:1012D00001C0905D908F812F8F70282F30E02A30D1
:1012E000310514F0895A01C0805D818F2091FB0186
:1012F00022952F70822F90E00A9714F0295A01C08E
:10130000205D258F2091FB012F70822F90E00A979E
:1013100014F0295A01C0205D268F808191819C01A3
:1013200054E0369527955A95E1F7A9014F70552756
:101330002F704A30510510F0295A01C0205D23A3B7
:10134000482F4F709C012F7033272A30310510F041
:1013500027E501C020E3240F24A39C01232F33277A
:1013600022952F702A30310518F02F70295A01C0AC
:10137000205D25A3892F99279C012F7033278F701B
:101380002A30310510F0895A01C0805D86A3B7016B
:10139000A60104E076956795579547950A95D1F78C
:1013A0008A019B010F701127222733274F700A30C3
:1013B00011052105310510F087E501C080E3840F98
:1013C00083A78C2D8F70B701A6014F705527662714
:1013D00077274A3051056105710510F0895A01C01F
:1013E000805D84A7B701A6011CE0769567955795A7
:1013F00047951A95D1F78A019B010F701127222773
:1014000033274F700A3011052105310510F087E5AB
:1014100001C080E3840F85A777276F2D5E2D4D2DAA
:101420008A019B010F701127222733274F700A3042
:1014300011052105310510F087E501C080E3840F17
:1014400086A780E387A790E39E0D90AB81AB82AB2C
:1014500066E2CF0147961F910F91FF90EF90DF90CA
:10146000CF900C94C9089FEB980F963010F48753D7
:1014700008959FE9980F963010F48755089580538A
:101480008A3008F08FEF0895EF92FF920F931F9329
:10149000DF937C018B01FB01108211821282138287
:1014A000D0E0F701ED0FF11D80810E94330A8F3FDC
:1014B000B1F0F8014081518162817381A4E0440F51
:1014C000551F661F771FAA95D1F7480F511D611D43
:1014D000711D4083518362837383DF5FE2CF8D2F61
:1014E000DF911F910F91FF90EF900895CF93DF93BD
:1014F000CDB7DEB727970FB6F894DEBF0FBECDBFCE
:101500006C837D838E839F838C819D819A83898365
:1015100089819A81FC0184918B838B8127960FB6F8
:10152000F894DEBF0FBECDBFDF91CF910895CF936A
:10153000DF93CDB7DEB70E947B0084E290E024E227
:1015400030E0F90120812062FC01208378940E9420
:10155000DD0785E290E025E230E0F901208120629C
:10156000FC012083809101029091020201969093E8
:1015700002028093010280910102909102020E9476
:10158000D80A909302028093010285E290E025E25E
:1015900030E0F90120812F7DFC0120838091010240
:1015A0009091020201969093020280930102D1CFA2
:1015B000CF93DF9300D000D0CDB7DEB79C838B8371
:1015C0008B819C81880F991F9A83898389819A8155
:1015D0000F900F900F900F90DF91CF910895FB0126
:1015E000DC0102C005900D9241505040D8F708959B
:1015F000FA01DC0104C08D910590801921F421507D
:101600003040C8F7881B990B0895FB01DC0102C02C
:1016100001900D9241505040D8F70895DC0101C06F
:0E1620006D9341505040E0F70895F894FFCFCD
:10162E0002015061636B657453697A653D3078359C
:10163E003000533035004F4B0051433031006D3187
:08164E00006C0045303500007E
:00000001FF
